{
  "_format": "hh-sol-artifact-1",
  "contractName": "BaseRegistrar",
  "sourceName": "contracts/registrars/BaseRegistrar.sol",
  "abi": [
    {
      "inputs": [
        {
          "internalType": "contract IRegistry",
          "name": "_ens",
          "type": "address"
        },
        {
          "internalType": "string",
          "name": "tld_",
          "type": "string"
        },
        {
          "internalType": "string",
          "name": "_name",
          "type": "string"
        },
        {
          "internalType": "string",
          "name": "_symbol",
          "type": "string"
        }
      ],
      "stateMutability": "nonpayable",
      "type": "constructor"
    },
    {
      "anonymous": false,
      "inputs": [
        {
          "indexed": true,
          "internalType": "address",
          "name": "owner",
          "type": "address"
        },
        {
          "indexed": true,
          "internalType": "address",
          "name": "approved",
          "type": "address"
        },
        {
          "indexed": true,
          "internalType": "uint256",
          "name": "tokenId",
          "type": "uint256"
        }
      ],
      "name": "Approval",
      "type": "event"
    },
    {
      "anonymous": false,
      "inputs": [
        {
          "indexed": true,
          "internalType": "address",
          "name": "owner",
          "type": "address"
        },
        {
          "indexed": true,
          "internalType": "address",
          "name": "operator",
          "type": "address"
        },
        {
          "indexed": false,
          "internalType": "bool",
          "name": "approved",
          "type": "bool"
        }
      ],
      "name": "ApprovalForAll",
      "type": "event"
    },
    {
      "anonymous": false,
      "inputs": [
        {
          "indexed": true,
          "internalType": "address",
          "name": "controller",
          "type": "address"
        }
      ],
      "name": "ControllerAdded",
      "type": "event"
    },
    {
      "anonymous": false,
      "inputs": [
        {
          "indexed": true,
          "internalType": "address",
          "name": "controller",
          "type": "address"
        }
      ],
      "name": "ControllerRemoved",
      "type": "event"
    },
    {
      "anonymous": false,
      "inputs": [
        {
          "indexed": true,
          "internalType": "uint256",
          "name": "id",
          "type": "uint256"
        },
        {
          "indexed": true,
          "internalType": "address",
          "name": "owner",
          "type": "address"
        },
        {
          "indexed": false,
          "internalType": "uint256",
          "name": "expires",
          "type": "uint256"
        }
      ],
      "name": "NameMigrated",
      "type": "event"
    },
    {
      "anonymous": false,
      "inputs": [
        {
          "indexed": true,
          "internalType": "uint256",
          "name": "id",
          "type": "uint256"
        },
        {
          "indexed": true,
          "internalType": "address",
          "name": "owner",
          "type": "address"
        },
        {
          "indexed": false,
          "internalType": "uint256",
          "name": "expires",
          "type": "uint256"
        }
      ],
      "name": "NameRegistered",
      "type": "event"
    },
    {
      "anonymous": false,
      "inputs": [
        {
          "indexed": true,
          "internalType": "uint256",
          "name": "id",
          "type": "uint256"
        },
        {
          "indexed": false,
          "internalType": "uint256",
          "name": "expires",
          "type": "uint256"
        }
      ],
      "name": "NameRenewed",
      "type": "event"
    },
    {
      "anonymous": false,
      "inputs": [
        {
          "indexed": true,
          "internalType": "address",
          "name": "previousOwner",
          "type": "address"
        },
        {
          "indexed": true,
          "internalType": "address",
          "name": "newOwner",
          "type": "address"
        }
      ],
      "name": "OwnershipTransferred",
      "type": "event"
    },
    {
      "anonymous": false,
      "inputs": [
        {
          "indexed": true,
          "internalType": "address",
          "name": "from",
          "type": "address"
        },
        {
          "indexed": true,
          "internalType": "address",
          "name": "to",
          "type": "address"
        },
        {
          "indexed": true,
          "internalType": "uint256",
          "name": "tokenId",
          "type": "uint256"
        }
      ],
      "name": "Transfer",
      "type": "event"
    },
    {
      "inputs": [
        {
          "internalType": "address",
          "name": "controller",
          "type": "address"
        }
      ],
      "name": "addController",
      "outputs": [],
      "stateMutability": "nonpayable",
      "type": "function"
    },
    {
      "inputs": [
        {
          "internalType": "address",
          "name": "to",
          "type": "address"
        },
        {
          "internalType": "uint256",
          "name": "tokenId",
          "type": "uint256"
        }
      ],
      "name": "approve",
      "outputs": [],
      "stateMutability": "nonpayable",
      "type": "function"
    },
    {
      "inputs": [
        {
          "internalType": "uint256",
          "name": "id",
          "type": "uint256"
        }
      ],
      "name": "available",
      "outputs": [
        {
          "internalType": "bool",
          "name": "",
          "type": "bool"
        }
      ],
      "stateMutability": "view",
      "type": "function"
    },
    {
      "inputs": [
        {
          "internalType": "address",
          "name": "owner",
          "type": "address"
        }
      ],
      "name": "balanceOf",
      "outputs": [
        {
          "internalType": "uint256",
          "name": "",
          "type": "uint256"
        }
      ],
      "stateMutability": "view",
      "type": "function"
    },
    {
      "inputs": [],
      "name": "baseNode",
      "outputs": [
        {
          "internalType": "bytes32",
          "name": "",
          "type": "bytes32"
        }
      ],
      "stateMutability": "pure",
      "type": "function"
    },
    {
      "inputs": [
        {
          "internalType": "address",
          "name": "",
          "type": "address"
        }
      ],
      "name": "controllers",
      "outputs": [
        {
          "internalType": "bool",
          "name": "",
          "type": "bool"
        }
      ],
      "stateMutability": "view",
      "type": "function"
    },
    {
      "inputs": [],
      "name": "ens",
      "outputs": [
        {
          "internalType": "contract IRegistry",
          "name": "",
          "type": "address"
        }
      ],
      "stateMutability": "view",
      "type": "function"
    },
    {
      "inputs": [
        {
          "internalType": "uint256",
          "name": "tokenId",
          "type": "uint256"
        }
      ],
      "name": "getApproved",
      "outputs": [
        {
          "internalType": "address",
          "name": "",
          "type": "address"
        }
      ],
      "stateMutability": "view",
      "type": "function"
    },
    {
      "inputs": [],
      "name": "gracePeriod",
      "outputs": [
        {
          "internalType": "uint256",
          "name": "",
          "type": "uint256"
        }
      ],
      "stateMutability": "pure",
      "type": "function"
    },
    {
      "inputs": [
        {
          "internalType": "address",
          "name": "owner",
          "type": "address"
        },
        {
          "internalType": "address",
          "name": "operator",
          "type": "address"
        }
      ],
      "name": "isApprovedForAll",
      "outputs": [
        {
          "internalType": "bool",
          "name": "",
          "type": "bool"
        }
      ],
      "stateMutability": "view",
      "type": "function"
    },
    {
      "inputs": [],
      "name": "name",
      "outputs": [
        {
          "internalType": "string",
          "name": "",
          "type": "string"
        }
      ],
      "stateMutability": "view",
      "type": "function"
    },
    {
      "inputs": [
        {
          "internalType": "uint256",
          "name": "id",
          "type": "uint256"
        }
      ],
      "name": "nameExpires",
      "outputs": [
        {
          "internalType": "uint256",
          "name": "",
          "type": "uint256"
        }
      ],
      "stateMutability": "view",
      "type": "function"
    },
    {
      "inputs": [
        {
          "internalType": "uint256",
          "name": "tokenId",
          "type": "uint256"
        }
      ],
      "name": "nameOf",
      "outputs": [
        {
          "internalType": "string",
          "name": "",
          "type": "string"
        }
      ],
      "stateMutability": "view",
      "type": "function"
    },
    {
      "inputs": [
        {
          "internalType": "uint256",
          "name": "",
          "type": "uint256"
        }
      ],
      "name": "names",
      "outputs": [
        {
          "internalType": "bytes",
          "name": "",
          "type": "bytes"
        }
      ],
      "stateMutability": "view",
      "type": "function"
    },
    {
      "inputs": [],
      "name": "owner",
      "outputs": [
        {
          "internalType": "address",
          "name": "",
          "type": "address"
        }
      ],
      "stateMutability": "view",
      "type": "function"
    },
    {
      "inputs": [
        {
          "internalType": "uint256",
          "name": "tokenId",
          "type": "uint256"
        }
      ],
      "name": "ownerOf",
      "outputs": [
        {
          "internalType": "address",
          "name": "",
          "type": "address"
        }
      ],
      "stateMutability": "view",
      "type": "function"
    },
    {
      "inputs": [
        {
          "internalType": "uint256",
          "name": "id",
          "type": "uint256"
        },
        {
          "internalType": "address",
          "name": "owner",
          "type": "address"
        }
      ],
      "name": "reclaim",
      "outputs": [],
      "stateMutability": "nonpayable",
      "type": "function"
    },
    {
      "inputs": [
        {
          "internalType": "string",
          "name": "name",
          "type": "string"
        },
        {
          "internalType": "address",
          "name": "owner",
          "type": "address"
        },
        {
          "internalType": "uint256",
          "name": "duration",
          "type": "uint256"
        }
      ],
      "name": "register",
      "outputs": [
        {
          "internalType": "uint256",
          "name": "",
          "type": "uint256"
        },
        {
          "internalType": "uint256",
          "name": "",
          "type": "uint256"
        }
      ],
      "stateMutability": "nonpayable",
      "type": "function"
    },
    {
      "inputs": [
        {
          "internalType": "string",
          "name": "name",
          "type": "string"
        },
        {
          "internalType": "address",
          "name": "owner",
          "type": "address"
        },
        {
          "internalType": "uint256",
          "name": "duration",
          "type": "uint256"
        }
      ],
      "name": "registerOnly",
      "outputs": [
        {
          "internalType": "uint256",
          "name": "",
          "type": "uint256"
        },
        {
          "internalType": "uint256",
          "name": "",
          "type": "uint256"
        }
      ],
      "stateMutability": "nonpayable",
      "type": "function"
    },
    {
      "inputs": [
        {
          "internalType": "address",
          "name": "controller",
          "type": "address"
        }
      ],
      "name": "removeController",
      "outputs": [],
      "stateMutability": "nonpayable",
      "type": "function"
    },
    {
      "inputs": [
        {
          "internalType": "uint256",
          "name": "id",
          "type": "uint256"
        },
        {
          "internalType": "uint256",
          "name": "duration",
          "type": "uint256"
        }
      ],
      "name": "renew",
      "outputs": [
        {
          "internalType": "uint256",
          "name": "",
          "type": "uint256"
        }
      ],
      "stateMutability": "nonpayable",
      "type": "function"
    },
    {
      "inputs": [],
      "name": "renounceOwnership",
      "outputs": [],
      "stateMutability": "nonpayable",
      "type": "function"
    },
    {
      "inputs": [
        {
          "internalType": "address",
          "name": "from",
          "type": "address"
        },
        {
          "internalType": "address",
          "name": "to",
          "type": "address"
        },
        {
          "internalType": "uint256",
          "name": "tokenId",
          "type": "uint256"
        }
      ],
      "name": "safeTransferFrom",
      "outputs": [],
      "stateMutability": "nonpayable",
      "type": "function"
    },
    {
      "inputs": [
        {
          "internalType": "address",
          "name": "from",
          "type": "address"
        },
        {
          "internalType": "address",
          "name": "to",
          "type": "address"
        },
        {
          "internalType": "uint256",
          "name": "tokenId",
          "type": "uint256"
        },
        {
          "internalType": "bytes",
          "name": "data",
          "type": "bytes"
        }
      ],
      "name": "safeTransferFrom",
      "outputs": [],
      "stateMutability": "nonpayable",
      "type": "function"
    },
    {
      "inputs": [
        {
          "internalType": "address",
          "name": "operator",
          "type": "address"
        },
        {
          "internalType": "bool",
          "name": "approved",
          "type": "bool"
        }
      ],
      "name": "setApprovalForAll",
      "outputs": [],
      "stateMutability": "nonpayable",
      "type": "function"
    },
    {
      "inputs": [
        {
          "internalType": "address",
          "name": "resolver",
          "type": "address"
        }
      ],
      "name": "setResolver",
      "outputs": [],
      "stateMutability": "nonpayable",
      "type": "function"
    },
    {
      "inputs": [
        {
          "internalType": "bytes4",
          "name": "interfaceId",
          "type": "bytes4"
        }
      ],
      "name": "supportsInterface",
      "outputs": [
        {
          "internalType": "bool",
          "name": "",
          "type": "bool"
        }
      ],
      "stateMutability": "view",
      "type": "function"
    },
    {
      "inputs": [],
      "name": "symbol",
      "outputs": [
        {
          "internalType": "string",
          "name": "",
          "type": "string"
        }
      ],
      "stateMutability": "view",
      "type": "function"
    },
    {
      "inputs": [],
      "name": "tld",
      "outputs": [
        {
          "internalType": "string",
          "name": "",
          "type": "string"
        }
      ],
      "stateMutability": "view",
      "type": "function"
    },
    {
      "inputs": [
        {
          "internalType": "uint256",
          "name": "index",
          "type": "uint256"
        }
      ],
      "name": "tokenByIndex",
      "outputs": [
        {
          "internalType": "uint256",
          "name": "",
          "type": "uint256"
        }
      ],
      "stateMutability": "view",
      "type": "function"
    },
    {
      "inputs": [
        {
          "internalType": "address",
          "name": "owner",
          "type": "address"
        },
        {
          "internalType": "uint256",
          "name": "index",
          "type": "uint256"
        }
      ],
      "name": "tokenOfOwnerByIndex",
      "outputs": [
        {
          "internalType": "uint256",
          "name": "",
          "type": "uint256"
        }
      ],
      "stateMutability": "view",
      "type": "function"
    },
    {
      "inputs": [
        {
          "internalType": "uint256",
          "name": "tokenId",
          "type": "uint256"
        }
      ],
      "name": "tokenURI",
      "outputs": [
        {
          "internalType": "string",
          "name": "",
          "type": "string"
        }
      ],
      "stateMutability": "view",
      "type": "function"
    },
    {
      "inputs": [],
      "name": "totalSupply",
      "outputs": [
        {
          "internalType": "uint256",
          "name": "",
          "type": "uint256"
        }
      ],
      "stateMutability": "view",
      "type": "function"
    },
    {
      "inputs": [
        {
          "internalType": "address",
          "name": "from",
          "type": "address"
        },
        {
          "internalType": "address",
          "name": "to",
          "type": "address"
        },
        {
          "internalType": "uint256",
          "name": "tokenId",
          "type": "uint256"
        }
      ],
      "name": "transferFrom",
      "outputs": [],
      "stateMutability": "nonpayable",
      "type": "function"
    },
    {
      "inputs": [
        {
          "internalType": "address",
          "name": "newOwner",
          "type": "address"
        }
      ],
      "name": "transferOwnership",
      "outputs": [],
      "stateMutability": "nonpayable",
      "type": "function"
    }
  ],
  "bytecode": "0x60806040523480156200001157600080fd5b5060405162002e6738038062002e67833981016040819052620000349162000284565b8151829082906200004d90600090602085019062000111565b5080516200006390600190602084019062000111565b505050620000806200007a620000bb60201b60201c565b620000bf565b600d80546001600160a01b0319166001600160a01b0386161790558251620000b090600b90602086019062000111565b505050505062000372565b3390565b600a80546001600160a01b038381166001600160a01b0319831681179093556040519116919082907f8be0079c531659141344cd1fd0a4f28419497f9722a3daafe3b4186f6b6457e090600090a35050565b8280546200011f9062000336565b90600052602060002090601f0160209004810192826200014357600085556200018e565b82601f106200015e57805160ff19168380011785556200018e565b828001600101855582156200018e579182015b828111156200018e57825182559160200191906001019062000171565b506200019c929150620001a0565b5090565b5b808211156200019c5760008155600101620001a1565b634e487b7160e01b600052604160045260246000fd5b600082601f830112620001df57600080fd5b81516001600160401b0380821115620001fc57620001fc620001b7565b604051601f8301601f19908116603f01168101908282118183101715620002275762000227620001b7565b816040528381526020925086838588010111156200024457600080fd5b600091505b8382101562000268578582018301518183018401529082019062000249565b838211156200027a5760008385830101525b9695505050505050565b600080600080608085870312156200029b57600080fd5b84516001600160a01b0381168114620002b357600080fd5b60208601519094506001600160401b0380821115620002d157600080fd5b620002df88838901620001cd565b94506040870151915080821115620002f657600080fd5b6200030488838901620001cd565b935060608701519150808211156200031b57600080fd5b506200032a87828801620001cd565b91505092959194509250565b600181811c908216806200034b57607f821691505b6020821081036200036c57634e487b7160e01b600052602260045260246000fd5b50919050565b612ae580620003826000396000f3fe608060405234801561001057600080fd5b50600436106102415760003560e01c806370a0823111610145578063c475abff116100bd578063da8c229e1161008c578063e985e9c511610071578063e985e9c5146104c6578063f2fde38b14610502578063f6a74ed71461051557600080fd5b8063da8c229e146104a3578063ddf7fcb01461040a57600080fd5b8063c475abff1461044a578063c87b56dd1461045d578063d393c87114610470578063d6e4fa861461048357600080fd5b806396e494e811610114578063a22cb465116100f9578063a22cb46514610411578063a7fc7a0714610424578063b88d4fde1461043757600080fd5b806396e494e8146103f7578063a06db7dc1461040a57600080fd5b806370a08231146103c3578063715018a6146103d65780638da5cb5b146103de57806395d89b41146103ef57600080fd5b806328ed4f6c116101d857806342842e0e116101a75780634e543b261161018c5780634e543b261461038a5780634f6ccce71461039d5780636352211e146103b057600080fd5b806342842e0e146103645780634622ab031461037757600080fd5b806328ed4f6c146103235780632d551432146103365780632f745c591461033e5780633f15457f1461035157600080fd5b8063095ea7b311610214578063095ea7b3146102c157806309b0eb4c146102d657806318160ddd146102fe57806323b872dd1461031057600080fd5b806301ffc9a714610246578063051a26641461026e57806306fdde031461028e578063081812fc14610296575b600080fd5b61025961025436600461247c565b610528565b60405190151581526020015b60405180910390f35b61028161027c366004612499565b610584565b6040516102659190612528565b6102816106b4565b6102a96102a4366004612499565b610746565b6040516001600160a01b039091168152602001610265565b6102d46102cf366004612550565b61076d565b005b6102e96102e436600461257c565b61089e565b60408051928352602083019190915201610265565b6008545b604051908152602001610265565b6102d461031e366004612605565b6108dc565b6102d4610331366004612646565b610963565b610281610ab2565b61030261034c366004612550565b610ac1565b600d546102a9906001600160a01b031681565b6102d4610372366004612605565b610b69565b610281610385366004612499565b610b84565b6102d4610398366004612676565b610c1e565b6103026103ab366004612499565b610cb4565b6102a96103be366004612499565b610d58565b6103026103d1366004612676565b610d7b565b6102d4610e15565b600a546001600160a01b03166102a9565b610281610e29565b610259610405366004612499565b610e38565b6000610302565b6102d461041f366004612693565b610e5c565b6102d4610432366004612676565b610e6b565b6102d46104453660046126f5565b610edd565b6103026104583660046127f3565b610f6b565b61028161046b366004612499565b611105565b6102e961047e36600461257c565b611179565b610302610491366004612499565b6000908152600c602052604090205490565b6102596104b1366004612676565b600e6020526000908152604090205460ff1681565b6102596104d4366004612815565b6001600160a01b03918216600090815260056020908152604080832093909416825291909152205460ff1690565b6102d4610510366004612676565b6111a9565b6102d4610523366004612676565b611239565b60007fffffffff0000000000000000000000000000000000000000000000000000000082167f35d1344000000000000000000000000000000000000000000000000000000000148061057e575061057e826112a8565b92915050565b6000818152600260205260409020546060906001600160a01b03166106165760405162461bcd60e51b815260206004820152602360248201527f426173655265676973747261723a20746f6b656e20646f6573206e6f7420657860448201527f697374000000000000000000000000000000000000000000000000000000000060648201526084015b60405180910390fd5b6000828152600f60205260409020805461062f90612843565b80601f016020809104026020016040519081016040528092919081815260200182805461065b90612843565b80156106a85780601f1061067d576101008083540402835291602001916106a8565b820191906000526020600020905b81548152906001019060200180831161068b57829003601f168201915b50505050509050919050565b6060600080546106c390612843565b80601f01602080910402602001604051908101604052809291908181526020018280546106ef90612843565b801561073c5780601f106107115761010080835404028352916020019161073c565b820191906000526020600020905b81548152906001019060200180831161071f57829003601f168201915b5050505050905090565b6000610751826112fe565b506000908152600460205260409020546001600160a01b031690565b600061077882611362565b9050806001600160a01b0316836001600160a01b0316036108015760405162461bcd60e51b815260206004820152602160248201527f4552433732313a20617070726f76616c20746f2063757272656e74206f776e6560448201527f7200000000000000000000000000000000000000000000000000000000000000606482015260840161060d565b336001600160a01b038216148061081d575061081d81336104d4565b61088f5760405162461bcd60e51b815260206004820152603e60248201527f4552433732313a20617070726f76652063616c6c6572206973206e6f7420746f60448201527f6b656e206f776e6572206e6f7220617070726f76656420666f7220616c6c0000606482015260840161060d565b61089983836113c7565b505050565b600080600086866040516108b3929190612896565b6040519081900390209050806108ce8888838989600061144d565b925092505094509492505050565b6108e633826116ab565b6109585760405162461bcd60e51b815260206004820152602e60248201527f4552433732313a2063616c6c6572206973206e6f7420746f6b656e206f776e6560448201527f72206e6f7220617070726f766564000000000000000000000000000000000000606482015260840161060d565b61089983838361172a565b600d546040517f02571be30000000000000000000000000000000000000000000000000000000081526000600482015230916001600160a01b0316906302571be390602401602060405180830381865afa1580156109c5573d6000803e3d6000fd5b505050506040513d601f19601f820116820180604052508101906109e991906128a6565b6001600160a01b0316146109fc57600080fd5b610a0633836116ab565b610a0f57600080fd5b600d546001600160a01b03166306ab5923600060405160e083901b7fffffffff000000000000000000000000000000000000000000000000000000001681526004810191909152602481018590526001600160a01b03841660448201526064016020604051808303816000875af1158015610a8e573d6000803e3d6000fd5b505050506040513d601f19601f8201168201806040525081019061089991906128c3565b6060600b80546106c390612843565b6000610acc83610d7b565b8210610b405760405162461bcd60e51b815260206004820152602b60248201527f455243373231456e756d657261626c653a206f776e657220696e646578206f7560448201527f74206f6620626f756e6473000000000000000000000000000000000000000000606482015260840161060d565b506001600160a01b03919091166000908152600660209081526040808320938352929052205490565b61089983838360405180602001604052806000815250610edd565b600f6020526000908152604090208054610b9d90612843565b80601f0160208091040260200160405190810160405280929190818152602001828054610bc990612843565b8015610c165780601f10610beb57610100808354040283529160200191610c16565b820191906000526020600020905b815481529060010190602001808311610bf957829003601f168201915b505050505081565b610c2661191a565b600d546001600160a01b0316631896f70a60006040517fffffffff0000000000000000000000000000000000000000000000000000000060e084901b16815260048101919091526001600160a01b0384166024820152604401600060405180830381600087803b158015610c9957600080fd5b505af1158015610cad573d6000803e3d6000fd5b5050505050565b6000610cbf60085490565b8210610d335760405162461bcd60e51b815260206004820152602c60248201527f455243373231456e756d657261626c653a20676c6f62616c20696e646578206f60448201527f7574206f6620626f756e64730000000000000000000000000000000000000000606482015260840161060d565b60088281548110610d4657610d466128dc565b90600052602060002001549050919050565b6000818152600c60205260408120544210610d7257600080fd5b61057e82611362565b60006001600160a01b038216610df95760405162461bcd60e51b815260206004820152602960248201527f4552433732313a2061646472657373207a65726f206973206e6f74206120766160448201527f6c6964206f776e65720000000000000000000000000000000000000000000000606482015260840161060d565b506001600160a01b031660009081526003602052604090205490565b610e1d61191a565b610e276000611974565b565b6060600180546106c390612843565b600042816000848152600c6020526040902054610e55919061293a565b1092915050565b610e673383836119de565b5050565b610e7361191a565b6001600160a01b0381166000818152600e602052604080822080547fffffffffffffffffffffffffffffffffffffffffffffffffffffffffffffff00166001179055517f0a8bb31534c0ed46f380cb867bd5c803a189ced9a764e30b3a4991a9901d74749190a250565b610ee733836116ab565b610f595760405162461bcd60e51b815260206004820152602e60248201527f4552433732313a2063616c6c6572206973206e6f7420746f6b656e206f776e6560448201527f72206e6f7220617070726f766564000000000000000000000000000000000000606482015260840161060d565b610f6584848484611aca565b50505050565b600d546040517f02571be30000000000000000000000000000000000000000000000000000000081526000600482018190529130916001600160a01b03909116906302571be390602401602060405180830381865afa158015610fd2573d6000803e3d6000fd5b505050506040513d601f19601f82011682018060405250810190610ff691906128a6565b6001600160a01b03161461100957600080fd5b336000908152600e602052604090205460ff1661102557600080fd5b6000838152600c6020526040812054429161103f9161293a565b101561104a57600080fd5b61105560008361293a565b6000848152600c602052604081205461106f90859061293a565b611079919061293a565b1161108357600080fd5b6000838152600c6020526040812080548492906110a190849061293a565b90915550506000838152600c60205260409081902054905184917f9b87a00e30f1ac65d898f070f8a3488fe60517182d0a2098e1b4b93a54aa9bd6916110e991815260200190565b60405180910390a250506000908152600c602052604090205490565b6060611110826112fe565b600061112760408051602081019091526000815290565b905060008151116111475760405180602001604052806000815250611172565b8061115184611b53565b604051602001611162929190612952565b6040516020818303038152906040525b9392505050565b6000806000868660405161118e929190612896565b6040519081900390209050806108ce8888838989600161144d565b6111b161191a565b6001600160a01b03811661122d5760405162461bcd60e51b815260206004820152602660248201527f4f776e61626c653a206e6577206f776e657220697320746865207a65726f206160448201527f6464726573730000000000000000000000000000000000000000000000000000606482015260840161060d565b61123681611974565b50565b61124161191a565b6001600160a01b0381166000818152600e602052604080822080547fffffffffffffffffffffffffffffffffffffffffffffffffffffffffffffff00169055517f33d83959be2573f5453b12eb9d43b3499bc57d96bd2f067ba44803c859e811139190a250565b60007fffffffff0000000000000000000000000000000000000000000000000000000082167f780e9d6300000000000000000000000000000000000000000000000000000000148061057e575061057e82611c88565b6000818152600260205260409020546001600160a01b03166112365760405162461bcd60e51b815260206004820152601860248201527f4552433732313a20696e76616c696420746f6b656e2049440000000000000000604482015260640161060d565b6000818152600260205260408120546001600160a01b03168061057e5760405162461bcd60e51b815260206004820152601860248201527f4552433732313a20696e76616c696420746f6b656e2049440000000000000000604482015260640161060d565b600081815260046020526040902080547fffffffffffffffffffffffff0000000000000000000000000000000000000000166001600160a01b038416908117909155819061141482611362565b6001600160a01b03167f8c5be1e5ebec7d5bd14f71427d1e84f3dd0314c0f7b2291e5b200ac8c7c3b92560405160405180910390a45050565b600d546040517f02571be30000000000000000000000000000000000000000000000000000000081526000600482018190529130916001600160a01b03909116906302571be390602401602060405180830381865afa1580156114b4573d6000803e3d6000fd5b505050506040513d601f19601f820116820180604052508101906114d891906128a6565b6001600160a01b0316146114eb57600080fd5b336000908152600e602052604090205460ff1661150757600080fd5b61151085610e38565b61151957600080fd5b61152460004261293a565b6000611530854261293a565b61153a919061293a565b1161154457600080fd5b61154e834261293a565b6000868152600c60209081526040808320939093556002905220546001600160a01b0316156115805761158085611d6b565b61158a8486611e2a565b811561163557600d546001600160a01b03166306ab5923600060405160e083901b7fffffffff000000000000000000000000000000000000000000000000000000001681526004810191909152602481018890526001600160a01b03871660448201526064016020604051808303816000875af115801561160f573d6000803e3d6000fd5b505050506040513d601f19601f8201168201806040525081019061163391906128c3565b505b6000858152600f6020526040902061164e908888612397565b506001600160a01b038416857fb3d987963d01b2f68493b4bdb130988f157ea43070d4ad840fee0466ed9370d9611685864261293a565b60405190815260200160405180910390a36116a0834261293a565b979650505050505050565b6000806116b783610d58565b9050806001600160a01b0316846001600160a01b031614806116f25750836001600160a01b03166116e784610746565b6001600160a01b0316145b8061172257506001600160a01b0380821660009081526005602090815260408083209388168352929052205460ff165b949350505050565b826001600160a01b031661173d82611362565b6001600160a01b0316146117b95760405162461bcd60e51b815260206004820152602560248201527f4552433732313a207472616e736665722066726f6d20696e636f72726563742060448201527f6f776e6572000000000000000000000000000000000000000000000000000000606482015260840161060d565b6001600160a01b0382166118345760405162461bcd60e51b8152602060048201526024808201527f4552433732313a207472616e7366657220746f20746865207a65726f2061646460448201527f7265737300000000000000000000000000000000000000000000000000000000606482015260840161060d565b61183f838383611f90565b61184a6000826113c7565b6001600160a01b0383166000908152600360205260408120805460019290611873908490612981565b90915550506001600160a01b03821660009081526003602052604081208054600192906118a190849061293a565b909155505060008181526002602052604080822080547fffffffffffffffffffffffff0000000000000000000000000000000000000000166001600160a01b0386811691821790925591518493918716917fddf252ad1be2c89b69c2b068fc378daa952ba7f163c4a11628f55a4df523b3ef91a4505050565b600a546001600160a01b03163314610e275760405162461bcd60e51b815260206004820181905260248201527f4f776e61626c653a2063616c6c6572206973206e6f7420746865206f776e6572604482015260640161060d565b600a80546001600160a01b038381167fffffffffffffffffffffffff0000000000000000000000000000000000000000831681179093556040519116919082907f8be0079c531659141344cd1fd0a4f28419497f9722a3daafe3b4186f6b6457e090600090a35050565b816001600160a01b0316836001600160a01b031603611a3f5760405162461bcd60e51b815260206004820152601960248201527f4552433732313a20617070726f766520746f2063616c6c657200000000000000604482015260640161060d565b6001600160a01b0383811660008181526005602090815260408083209487168084529482529182902080547fffffffffffffffffffffffffffffffffffffffffffffffffffffffffffffff001686151590811790915591519182527f17307eab39ab6107e8899845ad3d59bd9653f200f220920489ca2b5937696c31910160405180910390a3505050565b611ad584848461172a565b611ae184848484612048565b610f655760405162461bcd60e51b815260206004820152603260248201527f4552433732313a207472616e7366657220746f206e6f6e20455243373231526560448201527f63656976657220696d706c656d656e7465720000000000000000000000000000606482015260840161060d565b606081600003611b9657505060408051808201909152600181527f3000000000000000000000000000000000000000000000000000000000000000602082015290565b8160005b8115611bc05780611baa81612998565b9150611bb99050600a836129ff565b9150611b9a565b60008167ffffffffffffffff811115611bdb57611bdb6126c6565b6040519080825280601f01601f191660200182016040528015611c05576020820181803683370190505b5090505b841561172257611c1a600183612981565b9150611c27600a86612a13565b611c3290603061293a565b60f81b818381518110611c4757611c476128dc565b60200101907effffffffffffffffffffffffffffffffffffffffffffffffffffffffffffff1916908160001a905350611c81600a866129ff565b9450611c09565b60007fffffffff0000000000000000000000000000000000000000000000000000000082167f80ac58cd000000000000000000000000000000000000000000000000000000001480611d1b57507fffffffff0000000000000000000000000000000000000000000000000000000082167f5b5e139f00000000000000000000000000000000000000000000000000000000145b8061057e57507f01ffc9a7000000000000000000000000000000000000000000000000000000007fffffffff0000000000000000000000000000000000000000000000000000000083161461057e565b6000611d7682611362565b9050611d8481600084611f90565b611d8f6000836113c7565b6001600160a01b0381166000908152600360205260408120805460019290611db8908490612981565b909155505060008281526002602052604080822080547fffffffffffffffffffffffff0000000000000000000000000000000000000000169055518391906001600160a01b038416907fddf252ad1be2c89b69c2b068fc378daa952ba7f163c4a11628f55a4df523b3ef908390a45050565b6001600160a01b038216611e805760405162461bcd60e51b815260206004820181905260248201527f4552433732313a206d696e7420746f20746865207a65726f2061646472657373604482015260640161060d565b6000818152600260205260409020546001600160a01b031615611ee55760405162461bcd60e51b815260206004820152601c60248201527f4552433732313a20746f6b656e20616c7265616479206d696e74656400000000604482015260640161060d565b611ef160008383611f90565b6001600160a01b0382166000908152600360205260408120805460019290611f1a90849061293a565b909155505060008181526002602052604080822080547fffffffffffffffffffffffff0000000000000000000000000000000000000000166001600160a01b03861690811790915590518392907fddf252ad1be2c89b69c2b068fc378daa952ba7f163c4a11628f55a4df523b3ef908290a45050565b6001600160a01b038316611feb57611fe681600880546000838152600960205260408120829055600182018355919091527ff3f7a9fe364faab93b216da50a3214154f22a0a2b415b23a84c8169e8b636ee30155565b61200e565b816001600160a01b0316836001600160a01b03161461200e5761200e8382612207565b6001600160a01b03821661202557610899816122a4565b826001600160a01b0316826001600160a01b031614610899576108998282612353565b60006001600160a01b0384163b156121fc576040517f150b7a020000000000000000000000000000000000000000000000000000000081526001600160a01b0385169063150b7a02906120a5903390899088908890600401612a27565b6020604051808303816000875af19250505080156120fe575060408051601f3d9081017fffffffffffffffffffffffffffffffffffffffffffffffffffffffffffffffe01682019092526120fb91810190612a63565b60015b6121b1573d80801561212c576040519150601f19603f3d011682016040523d82523d6000602084013e612131565b606091505b5080516000036121a95760405162461bcd60e51b815260206004820152603260248201527f4552433732313a207472616e7366657220746f206e6f6e20455243373231526560448201527f63656976657220696d706c656d656e7465720000000000000000000000000000606482015260840161060d565b805181602001fd5b7fffffffff00000000000000000000000000000000000000000000000000000000167f150b7a0200000000000000000000000000000000000000000000000000000000149050611722565b506001949350505050565b6000600161221484610d7b565b61221e9190612981565b600083815260076020526040902054909150808214612271576001600160a01b03841660009081526006602090815260408083208584528252808320548484528184208190558352600790915290208190555b5060009182526007602090815260408084208490556001600160a01b039094168352600681528383209183525290812055565b6008546000906122b690600190612981565b600083815260096020526040812054600880549394509092849081106122de576122de6128dc565b9060005260206000200154905080600883815481106122ff576122ff6128dc565b600091825260208083209091019290925582815260099091526040808220849055858252812055600880548061233757612337612a80565b6001900381819060005260206000200160009055905550505050565b600061235e83610d7b565b6001600160a01b039093166000908152600660209081526040808320868452825280832085905593825260079052919091209190915550565b8280546123a390612843565b90600052602060002090601f0160209004810192826123c55760008555612429565b82601f106123fc578280017fffffffffffffffffffffffffffffffffffffffffffffffffffffffffffffff00823516178555612429565b82800160010185558215612429579182015b8281111561242957823582559160200191906001019061240e565b50612435929150612439565b5090565b5b80821115612435576000815560010161243a565b7fffffffff000000000000000000000000000000000000000000000000000000008116811461123657600080fd5b60006020828403121561248e57600080fd5b81356111728161244e565b6000602082840312156124ab57600080fd5b5035919050565b60005b838110156124cd5781810151838201526020016124b5565b83811115610f655750506000910152565b600081518084526124f68160208601602086016124b2565b601f017fffffffffffffffffffffffffffffffffffffffffffffffffffffffffffffffe0169290920160200192915050565b60208152600061117260208301846124de565b6001600160a01b038116811461123657600080fd5b6000806040838503121561256357600080fd5b823561256e8161253b565b946020939093013593505050565b6000806000806060858703121561259257600080fd5b843567ffffffffffffffff808211156125aa57600080fd5b818701915087601f8301126125be57600080fd5b8135818111156125cd57600080fd5b8860208285010111156125df57600080fd5b602092830196509450508501356125f58161253b565b9396929550929360400135925050565b60008060006060848603121561261a57600080fd5b83356126258161253b565b925060208401356126358161253b565b929592945050506040919091013590565b6000806040838503121561265957600080fd5b82359150602083013561266b8161253b565b809150509250929050565b60006020828403121561268857600080fd5b81356111728161253b565b600080604083850312156126a657600080fd5b82356126b18161253b565b91506020830135801515811461266b57600080fd5b7f4e487b7100000000000000000000000000000000000000000000000000000000600052604160045260246000fd5b6000806000806080858703121561270b57600080fd5b84356127168161253b565b935060208501356127268161253b565b925060408501359150606085013567ffffffffffffffff8082111561274a57600080fd5b818701915087601f83011261275e57600080fd5b813581811115612770576127706126c6565b604051601f82017fffffffffffffffffffffffffffffffffffffffffffffffffffffffffffffffe0908116603f011681019083821181831017156127b6576127b66126c6565b816040528281528a60208487010111156127cf57600080fd5b82602086016020830137600060208483010152809550505050505092959194509250565b6000806040838503121561280657600080fd5b50508035926020909101359150565b6000806040838503121561282857600080fd5b82356128338161253b565b9150602083013561266b8161253b565b600181811c9082168061285757607f821691505b602082108103612890577f4e487b7100000000000000000000000000000000000000000000000000000000600052602260045260246000fd5b50919050565b8183823760009101908152919050565b6000602082840312156128b857600080fd5b81516111728161253b565b6000602082840312156128d557600080fd5b5051919050565b7f4e487b7100000000000000000000000000000000000000000000000000000000600052603260045260246000fd5b7f4e487b7100000000000000000000000000000000000000000000000000000000600052601160045260246000fd5b6000821982111561294d5761294d61290b565b500190565b600083516129648184602088016124b2565b8351908301906129788183602088016124b2565b01949350505050565b6000828210156129935761299361290b565b500390565b60007fffffffffffffffffffffffffffffffffffffffffffffffffffffffffffffffff82036129c9576129c961290b565b5060010190565b7f4e487b7100000000000000000000000000000000000000000000000000000000600052601260045260246000fd5b600082612a0e57612a0e6129d0565b500490565b600082612a2257612a226129d0565b500690565b60006001600160a01b03808716835280861660208401525083604083015260806060830152612a5960808301846124de565b9695505050505050565b600060208284031215612a7557600080fd5b81516111728161244e565b7f4e487b7100000000000000000000000000000000000000000000000000000000600052603160045260246000fdfea2646970667358221220808584c108330cb92cd3841051c01cd0ecd193f919e2b1fb6f358b4d9413e5e964736f6c634300080d0033",
  "linkReferences": {},
  "deployedLinkReferences": {}
}