{
  "_format": "hh-sol-artifact-1",
  "contractName": "PublicResolver",
  "sourceName": "contracts/resolvers/PublicResolver.sol",
  "abi": [
    {
      "inputs": [
        {
          "internalType": "contract IRegistry",
          "name": "_ens",
          "type": "address"
        },
        {
          "internalType": "address",
          "name": "_trustedETHController",
          "type": "address"
        },
        {
          "internalType": "address",
          "name": "_trustedReverseRegistrar",
          "type": "address"
        }
      ],
      "stateMutability": "nonpayable",
      "type": "constructor"
    },
    {
      "anonymous": false,
      "inputs": [
        {
          "indexed": true,
          "internalType": "bytes32",
          "name": "node",
          "type": "bytes32"
        },
        {
          "indexed": true,
          "internalType": "uint256",
          "name": "contentType",
          "type": "uint256"
        }
      ],
      "name": "ABIChanged",
      "type": "event"
    },
    {
      "anonymous": false,
      "inputs": [
        {
          "indexed": true,
          "internalType": "bytes32",
          "name": "node",
          "type": "bytes32"
        },
        {
          "indexed": false,
          "internalType": "address",
          "name": "a",
          "type": "address"
        }
      ],
      "name": "AddrChanged",
      "type": "event"
    },
    {
      "anonymous": false,
      "inputs": [
        {
          "indexed": true,
          "internalType": "bytes32",
          "name": "node",
          "type": "bytes32"
        },
        {
          "indexed": false,
          "internalType": "uint256",
          "name": "coinType",
          "type": "uint256"
        },
        {
          "indexed": false,
          "internalType": "bytes",
          "name": "newAddress",
          "type": "bytes"
        }
      ],
      "name": "AddressChanged",
      "type": "event"
    },
    {
      "anonymous": false,
      "inputs": [
        {
          "indexed": true,
          "internalType": "address",
          "name": "owner",
          "type": "address"
        },
        {
          "indexed": true,
          "internalType": "address",
          "name": "operator",
          "type": "address"
        },
        {
          "indexed": false,
          "internalType": "bool",
          "name": "approved",
          "type": "bool"
        }
      ],
      "name": "ApprovalForAll",
      "type": "event"
    },
    {
      "anonymous": false,
      "inputs": [
        {
          "indexed": true,
          "internalType": "bytes32",
          "name": "node",
          "type": "bytes32"
        },
        {
          "indexed": false,
          "internalType": "bytes",
          "name": "hash",
          "type": "bytes"
        }
      ],
      "name": "ContenthashChanged",
      "type": "event"
    },
    {
      "anonymous": false,
      "inputs": [
        {
          "indexed": true,
          "internalType": "bytes32",
          "name": "node",
          "type": "bytes32"
        },
        {
          "indexed": true,
          "internalType": "bytes4",
          "name": "interfaceID",
          "type": "bytes4"
        },
        {
          "indexed": false,
          "internalType": "address",
          "name": "implementer",
          "type": "address"
        }
      ],
      "name": "InterfaceChanged",
      "type": "event"
    },
    {
      "anonymous": false,
      "inputs": [
        {
          "indexed": true,
          "internalType": "bytes32",
          "name": "node",
          "type": "bytes32"
        },
        {
          "indexed": false,
          "internalType": "string",
          "name": "name",
          "type": "string"
        }
      ],
      "name": "NameChanged",
      "type": "event"
    },
    {
      "anonymous": false,
      "inputs": [
        {
          "indexed": true,
          "internalType": "bytes32",
          "name": "node",
          "type": "bytes32"
        },
        {
          "indexed": false,
          "internalType": "bytes32",
          "name": "x",
          "type": "bytes32"
        },
        {
          "indexed": false,
          "internalType": "bytes32",
          "name": "y",
          "type": "bytes32"
        }
      ],
      "name": "PubkeyChanged",
      "type": "event"
    },
    {
      "anonymous": false,
      "inputs": [
        {
          "indexed": true,
          "internalType": "bytes32",
          "name": "node",
          "type": "bytes32"
        },
        {
          "indexed": true,
          "internalType": "string",
          "name": "indexedKey",
          "type": "string"
        },
        {
          "indexed": false,
          "internalType": "string",
          "name": "key",
          "type": "string"
        }
      ],
      "name": "TextChanged",
      "type": "event"
    },
    {
      "inputs": [
        {
          "internalType": "bytes32",
          "name": "node",
          "type": "bytes32"
        },
        {
          "internalType": "uint256",
          "name": "contentTypes",
          "type": "uint256"
        }
      ],
      "name": "ABI",
      "outputs": [
        {
          "internalType": "uint256",
          "name": "",
          "type": "uint256"
        },
        {
          "internalType": "bytes",
          "name": "",
          "type": "bytes"
        }
      ],
      "stateMutability": "view",
      "type": "function"
    },
    {
      "inputs": [
        {
          "internalType": "bytes32",
          "name": "node",
          "type": "bytes32"
        }
      ],
      "name": "addr",
      "outputs": [
        {
          "internalType": "address payable",
          "name": "",
          "type": "address"
        }
      ],
      "stateMutability": "view",
      "type": "function"
    },
    {
      "inputs": [
        {
          "internalType": "bytes32",
          "name": "node",
          "type": "bytes32"
        }
      ],
      "name": "contenthash",
      "outputs": [
        {
          "internalType": "bytes",
          "name": "",
          "type": "bytes"
        }
      ],
      "stateMutability": "view",
      "type": "function"
    },
    {
      "inputs": [
        {
          "internalType": "bytes32",
          "name": "node",
          "type": "bytes32"
        },
        {
          "internalType": "bytes4",
          "name": "interfaceID",
          "type": "bytes4"
        }
      ],
      "name": "interfaceImplementer",
      "outputs": [
        {
          "internalType": "address",
          "name": "",
          "type": "address"
        }
      ],
      "stateMutability": "view",
      "type": "function"
    },
    {
      "inputs": [
        {
          "internalType": "address",
          "name": "account",
          "type": "address"
        },
        {
          "internalType": "address",
          "name": "operator",
          "type": "address"
        }
      ],
      "name": "isApprovedForAll",
      "outputs": [
        {
          "internalType": "bool",
          "name": "",
          "type": "bool"
        }
      ],
      "stateMutability": "view",
      "type": "function"
    },
    {
      "inputs": [
        {
          "internalType": "bytes[]",
          "name": "data",
          "type": "bytes[]"
        }
      ],
      "name": "multicall",
      "outputs": [
        {
          "internalType": "bytes[]",
          "name": "results",
          "type": "bytes[]"
        }
      ],
      "stateMutability": "nonpayable",
      "type": "function"
    },
    {
      "inputs": [
        {
          "internalType": "bytes32",
          "name": "node",
          "type": "bytes32"
        }
      ],
      "name": "name",
      "outputs": [
        {
          "internalType": "string",
          "name": "",
          "type": "string"
        }
      ],
      "stateMutability": "view",
      "type": "function"
    },
    {
      "inputs": [
        {
          "internalType": "bytes32",
          "name": "node",
          "type": "bytes32"
        }
      ],
      "name": "pubkey",
      "outputs": [
        {
          "internalType": "bytes32",
          "name": "x",
          "type": "bytes32"
        },
        {
          "internalType": "bytes32",
          "name": "y",
          "type": "bytes32"
        }
      ],
      "stateMutability": "view",
      "type": "function"
    },
    {
      "inputs": [
        {
          "internalType": "bytes32",
          "name": "node",
          "type": "bytes32"
        },
        {
          "internalType": "uint256",
          "name": "contentType",
          "type": "uint256"
        },
        {
          "internalType": "bytes",
          "name": "data",
          "type": "bytes"
        }
      ],
      "name": "setABI",
      "outputs": [],
      "stateMutability": "nonpayable",
      "type": "function"
    },
    {
      "inputs": [
        {
          "internalType": "bytes32",
          "name": "node",
          "type": "bytes32"
        },
        {
          "internalType": "uint256",
          "name": "coinType",
          "type": "uint256"
        },
        {
          "internalType": "bytes",
          "name": "a",
          "type": "bytes"
        }
      ],
      "name": "setAddr",
      "outputs": [],
      "stateMutability": "nonpayable",
      "type": "function"
    },
    {
      "inputs": [
        {
          "internalType": "bytes32",
          "name": "node",
          "type": "bytes32"
        },
        {
          "internalType": "address",
          "name": "a",
          "type": "address"
        }
      ],
      "name": "setAddr",
      "outputs": [],
      "stateMutability": "nonpayable",
      "type": "function"
    },
    {
      "inputs": [
        {
          "internalType": "address",
          "name": "operator",
          "type": "address"
        },
        {
          "internalType": "bool",
          "name": "approved",
          "type": "bool"
        }
      ],
      "name": "setApprovalForAll",
      "outputs": [],
      "stateMutability": "nonpayable",
      "type": "function"
    },
    {
      "inputs": [
        {
          "internalType": "bytes32",
          "name": "node",
          "type": "bytes32"
        },
        {
          "internalType": "bytes",
          "name": "hash",
          "type": "bytes"
        }
      ],
      "name": "setContenthash",
      "outputs": [],
      "stateMutability": "nonpayable",
      "type": "function"
    },
    {
      "inputs": [
        {
          "internalType": "bytes32",
          "name": "node",
          "type": "bytes32"
        },
        {
          "internalType": "bytes4",
          "name": "interfaceID",
          "type": "bytes4"
        },
        {
          "internalType": "address",
          "name": "implementer",
          "type": "address"
        }
      ],
      "name": "setInterface",
      "outputs": [],
      "stateMutability": "nonpayable",
      "type": "function"
    },
    {
      "inputs": [
        {
          "internalType": "bytes32",
          "name": "node",
          "type": "bytes32"
        },
        {
          "internalType": "string",
          "name": "newName",
          "type": "string"
        }
      ],
      "name": "setName",
      "outputs": [],
      "stateMutability": "nonpayable",
      "type": "function"
    },
    {
      "inputs": [
        {
          "internalType": "bytes32",
          "name": "node",
          "type": "bytes32"
        },
        {
          "internalType": "bytes32",
          "name": "x",
          "type": "bytes32"
        },
        {
          "internalType": "bytes32",
          "name": "y",
          "type": "bytes32"
        }
      ],
      "name": "setPubkey",
      "outputs": [],
      "stateMutability": "nonpayable",
      "type": "function"
    },
    {
      "inputs": [
        {
          "internalType": "bytes32",
          "name": "node",
          "type": "bytes32"
        },
        {
          "internalType": "string",
          "name": "key",
          "type": "string"
        },
        {
          "internalType": "string",
          "name": "value",
          "type": "string"
        }
      ],
      "name": "setText",
      "outputs": [],
      "stateMutability": "nonpayable",
      "type": "function"
    },
    {
      "inputs": [
        {
          "internalType": "bytes4",
          "name": "interfaceID",
          "type": "bytes4"
        }
      ],
      "name": "supportsInterface",
      "outputs": [
        {
          "internalType": "bool",
          "name": "",
          "type": "bool"
        }
      ],
      "stateMutability": "view",
      "type": "function"
    },
    {
      "inputs": [
        {
          "internalType": "bytes32",
          "name": "node",
          "type": "bytes32"
        },
        {
          "internalType": "string",
          "name": "key",
          "type": "string"
        }
      ],
      "name": "text",
      "outputs": [
        {
          "internalType": "string",
          "name": "",
          "type": "string"
        }
      ],
      "stateMutability": "view",
      "type": "function"
    }
  ],
  "bytecode": "0x60e06040523480156200001157600080fd5b50604051620020a4380380620020a483398101604081905262000034916200006b565b6001600160a01b0392831660805290821660a0521660c052620000bf565b6001600160a01b03811681146200006857600080fd5b50565b6000806000606084860312156200008157600080fd5b83516200008e8162000052565b6020850151909350620000a18162000052565b6040850151909250620000b48162000052565b809150509250925092565b60805160a05160c051611fb5620000ef60003960006111fc015260006111bd0152600061125d0152611fb56000f3fe608060405234801561001057600080fd5b506004361061016c5760003560e01c806377372213116100cd578063c869023311610081578063e59d895d11610066578063e59d895d14610342578063e985e9c514610355578063f1cb7e061461039e57600080fd5b8063c8690233146102f2578063d5fa2b001461032f57600080fd5b8063a22cb465116100b2578063a22cb465146102ac578063ac9650d8146102bf578063bc1c58d1146102df57600080fd5b806377372213146102865780638b95dd711461029957600080fd5b8063304e6ade1161012457806359d1d43c1161010957806359d1d43c14610240578063623195b014610260578063691f34311461027357600080fd5b8063304e6ade1461021a5780633b3b57de1461022d57600080fd5b8063124a319c11610155578063124a319c146101ae5780632203ab56146101e657806329cd62ea1461020757600080fd5b806301ffc9a71461017157806310f13a8c14610199575b600080fd5b61018461017f3660046117c1565b6103b1565b60405190151581526020015b60405180910390f35b6101ac6101a736600461181e565b6103c2565b005b6101c16101bc366004611898565b61046f565b60405173ffffffffffffffffffffffffffffffffffffffff9091168152602001610190565b6101f96101f43660046118c4565b6107ec565b604051610190929190611960565b6101ac610215366004611981565b610907565b6101ac6102283660046119ad565b610987565b6101c161023b3660046119f9565b6109e6565b61025361024e3660046119ad565b610a18565b6040516101909190611a12565b6101ac61026e366004611a25565b610add565b6102536102813660046119f9565b610b5e565b6101ac6102943660046119ad565b610c00565b6101ac6102a7366004611aa7565b610c5f565b6101ac6102ba366004611bae565b610d36565b6102d26102cd366004611bec565b610e76565b6040516101909190611c61565b6102536102ed3660046119f9565b610f91565b61031a6103003660046119f9565b600090815260056020526040902080546001909101549091565b60408051928352602083019190915201610190565b6101ac61033d366004611ce1565b610fae565b6101ac610350366004611d06565b610fd5565b610184610363366004611d46565b73ffffffffffffffffffffffffffffffffffffffff918216600090815260076020908152604080832093909416825291909152205460ff1690565b6102536103ac3660046118c4565b61109f565b60006103bc8261114d565b92915050565b846103cc816111a3565b6103d557600080fd5b82826006600089815260200190815260200160002087876040516103fa929190611d74565b908152604051908190036020019020610414929091611661565b508484604051610425929190611d74565b6040518091039020867fd8c9334b1a9c2f9da342a0a2b32629c1a229b6445dad78947f674b44444a7550878760405161045f929190611dcd565b60405180910390a3505050505050565b60008281526003602090815260408083207fffffffff000000000000000000000000000000000000000000000000000000008516845290915281205473ffffffffffffffffffffffffffffffffffffffff1680156104ce5790506103bc565b60006104d9856109e6565b905073ffffffffffffffffffffffffffffffffffffffff8116610501576000925050506103bc565b6040517f01ffc9a7000000000000000000000000000000000000000000000000000000006024820152600090819073ffffffffffffffffffffffffffffffffffffffff841690604401604080517fffffffffffffffffffffffffffffffffffffffffffffffffffffffffffffffe08184030181529181526020820180517bffffffffffffffffffffffffffffffffffffffffffffffffffffffff167f01ffc9a700000000000000000000000000000000000000000000000000000000179052516105cb9190611de1565b600060405180830381855afa9150503d8060008114610606576040519150601f19603f3d011682016040523d82523d6000602084013e61060b565b606091505b509150915081158061061e575060208151105b80610660575080601f8151811061063757610637611dfd565b01602001517fff0000000000000000000000000000000000000000000000000000000000000016155b156106725760009450505050506103bc565b6040517fffffffff000000000000000000000000000000000000000000000000000000008716602482015273ffffffffffffffffffffffffffffffffffffffff841690604401604080517fffffffffffffffffffffffffffffffffffffffffffffffffffffffffffffffe08184030181529181526020820180517bffffffffffffffffffffffffffffffffffffffffffffffffffffffff167f01ffc9a700000000000000000000000000000000000000000000000000000000179052516107399190611de1565b600060405180830381855afa9150503d8060008114610774576040519150601f19603f3d011682016040523d82523d6000602084013e610779565b606091505b50909250905081158061078d575060208151105b806107cf575080601f815181106107a6576107a6611dfd565b01602001517fff0000000000000000000000000000000000000000000000000000000000000016155b156107e15760009450505050506103bc565b509095945050505050565b600082815260208190526040812060609060015b8481116108e7578085161580159061083057506000818152602083905260408120805461082c90611e2c565b9050115b156108df578082600083815260200190815260200160002080805461085490611e2c565b80601f016020809104026020016040519081016040528092919081815260200182805461088090611e2c565b80156108cd5780601f106108a2576101008083540402835291602001916108cd565b820191906000526020600020905b8154815290600101906020018083116108b057829003601f168201915b50505050509050935093505050610900565b60011b610800565b5060006040518060200160405280600081525092509250505b9250929050565b82610911816111a3565b61091a57600080fd5b60408051808201825284815260208082018581526000888152600583528490209251835551600190920191909155815185815290810184905285917f1d6f5e03d3f63eb58751986629a5439baee5079ff04f345becb66e23eb154e4691015b60405180910390a250505050565b82610991816111a3565b61099a57600080fd5b60008481526002602052604090206109b3908484611661565b50837fe379c1624ed7e714cc0937528a32359d69d5281337765313dba4e081b72d75788484604051610979929190611dcd565b6000806109f483603c61109f565b90508051600003610a085750600092915050565b610a1181611337565b9392505050565b6060600660008581526020019081526020016000208383604051610a3d929190611d74565b90815260200160405180910390208054610a5690611e2c565b80601f0160208091040260200160405190810160405280929190818152602001828054610a8290611e2c565b8015610acf5780601f10610aa457610100808354040283529160200191610acf565b820191906000526020600020905b815481529060010190602001808311610ab257829003601f168201915b505050505090509392505050565b83610ae7816111a3565b610af057600080fd5b83610afc600182611eae565b1615610b0757600080fd5b6000858152602081815260408083208784529091529020610b29908484611661565b50604051849086907faa121bbeef5f32f5961a2a28966e769023910fc9479059ee3495d4c1a696efe390600090a35050505050565b6000818152600460205260409020805460609190610b7b90611e2c565b80601f0160208091040260200160405190810160405280929190818152602001828054610ba790611e2c565b8015610bf45780601f10610bc957610100808354040283529160200191610bf4565b820191906000526020600020905b815481529060010190602001808311610bd757829003601f168201915b50505050509050919050565b82610c0a816111a3565b610c1357600080fd5b6000848152600460205260409020610c2c908484611661565b50837fb7d29e911041e8d9b843369e890bcb72c9388692ba48b65ac54e7214c4c348f78484604051610979929190611dcd565b82610c69816111a3565b610c7257600080fd5b837f65412581168e88a1e60c6459d7f44ae83ad0832e670826c05a4e2476b57af7528484604051610ca4929190611960565b60405180910390a2603c8303610d0857837f52d7d861f09ab3d26239d492e8968629f95e9e318cf0b73bfddc441522a15fd2610cdf84611337565b60405173ffffffffffffffffffffffffffffffffffffffff909116815260200160405180910390a25b600084815260016020908152604080832086845282529091208351610d2f92850190611703565b5050505050565b73ffffffffffffffffffffffffffffffffffffffff82163303610ddf576040517f08c379a000000000000000000000000000000000000000000000000000000000815260206004820152602960248201527f455243313135353a2073657474696e6720617070726f76616c2073746174757360448201527f20666f722073656c660000000000000000000000000000000000000000000000606482015260840160405180910390fd5b33600081815260076020908152604080832073ffffffffffffffffffffffffffffffffffffffff87168085529083529281902080547fffffffffffffffffffffffffffffffffffffffffffffffffffffffffffffff001686151590811790915590519081529192917f17307eab39ab6107e8899845ad3d59bd9653f200f220920489ca2b5937696c31910160405180910390a35050565b60608167ffffffffffffffff811115610e9157610e91611a78565b604051908082528060200260200182016040528015610ec457816020015b6060815260200190600190039081610eaf5790505b50905060005b82811015610f8a5760008030868685818110610ee857610ee8611dfd565b9050602002810190610efa9190611ec5565b604051610f08929190611d74565b600060405180830381855af49150503d8060008114610f43576040519150601f19603f3d011682016040523d82523d6000602084013e610f48565b606091505b509150915081610f5757600080fd5b80848481518110610f6a57610f6a611dfd565b602002602001018190525050508080610f8290611f2a565b915050610eca565b5092915050565b6000818152600260205260409020805460609190610b7b90611e2c565b81610fb8816111a3565b610fc157600080fd5b610fd083603c6102a78561135f565b505050565b82610fdf816111a3565b610fe857600080fd5b60008481526003602090815260408083207fffffffff0000000000000000000000000000000000000000000000000000000087168085529083529281902080547fffffffffffffffffffffffff00000000000000000000000000000000000000001673ffffffffffffffffffffffffffffffffffffffff8716908117909155905190815286917f7c69f06bea0bdef565b709e93a147836b0063ba2dd89f02d0b7e8d931e6a6daa910160405180910390a350505050565b600082815260016020908152604080832084845290915290208054606091906110c790611e2c565b80601f01602080910402602001604051908101604052809291908181526020018280546110f390611e2c565b80156111405780601f1061111557610100808354040283529160200191611140565b820191906000526020600020905b81548152906001019060200180831161112357829003601f168201915b5050505050905092915050565b60007fffffffff0000000000000000000000000000000000000000000000000000000082167f59d1d43c0000000000000000000000000000000000000000000000000000000014806103bc57506103bc82611398565b60003373ffffffffffffffffffffffffffffffffffffffff7f000000000000000000000000000000000000000000000000000000000000000016148061121e57503373ffffffffffffffffffffffffffffffffffffffff7f000000000000000000000000000000000000000000000000000000000000000016145b1561122b57506001919050565b6040517f02571be3000000000000000000000000000000000000000000000000000000008152600481018390526000907f000000000000000000000000000000000000000000000000000000000000000073ffffffffffffffffffffffffffffffffffffffff16906302571be390602401602060405180830381865afa1580156112b9573d6000803e3d6000fd5b505050506040513d601f19601f820116820180604052508101906112dd9190611f62565b905073ffffffffffffffffffffffffffffffffffffffff8116331480610a11575073ffffffffffffffffffffffffffffffffffffffff8116600090815260076020908152604080832033845290915290205460ff16610a11565b6000815160141461134757600080fd5b50602001516c01000000000000000000000000900490565b6040805160148082528183019092526060916020820181803683375050506c010000000000000000000000009290920260208301525090565b60007fffffffff0000000000000000000000000000000000000000000000000000000082167fc86902330000000000000000000000000000000000000000000000000000000014806103bc57506103bc8260007fffffffff0000000000000000000000000000000000000000000000000000000082167f691f34310000000000000000000000000000000000000000000000000000000014806103bc57506103bc8260007fffffffff0000000000000000000000000000000000000000000000000000000082167f124a319c0000000000000000000000000000000000000000000000000000000014806103bc57506103bc8260007fffffffff0000000000000000000000000000000000000000000000000000000082167fbc1c58d10000000000000000000000000000000000000000000000000000000014806103bc57506103bc8260007fffffffff0000000000000000000000000000000000000000000000000000000082167f3b3b57de00000000000000000000000000000000000000000000000000000000148061156f57507fffffffff0000000000000000000000000000000000000000000000000000000082167ff1cb7e0600000000000000000000000000000000000000000000000000000000145b806103bc57506103bc8260007fffffffff0000000000000000000000000000000000000000000000000000000082167f2203ab560000000000000000000000000000000000000000000000000000000014806103bc57506103bc8260007fffffffff0000000000000000000000000000000000000000000000000000000082167fac9650d80000000000000000000000000000000000000000000000000000000014806103bc57507f01ffc9a7000000000000000000000000000000000000000000000000000000007fffffffff000000000000000000000000000000000000000000000000000000008316146103bc565b82805461166d90611e2c565b90600052602060002090601f01602090048101928261168f57600085556116f3565b82601f106116c6578280017fffffffffffffffffffffffffffffffffffffffffffffffffffffffffffffff008235161785556116f3565b828001600101855582156116f3579182015b828111156116f35782358255916020019190600101906116d8565b506116ff929150611777565b5090565b82805461170f90611e2c565b90600052602060002090601f01602090048101928261173157600085556116f3565b82601f1061174a57805160ff19168380011785556116f3565b828001600101855582156116f3579182015b828111156116f357825182559160200191906001019061175c565b5b808211156116ff5760008155600101611778565b80357fffffffff00000000000000000000000000000000000000000000000000000000811681146117bc57600080fd5b919050565b6000602082840312156117d357600080fd5b610a118261178c565b60008083601f8401126117ee57600080fd5b50813567ffffffffffffffff81111561180657600080fd5b60208301915083602082850101111561090057600080fd5b60008060008060006060868803121561183657600080fd5b85359450602086013567ffffffffffffffff8082111561185557600080fd5b61186189838a016117dc565b9096509450604088013591508082111561187a57600080fd5b50611887888289016117dc565b969995985093965092949392505050565b600080604083850312156118ab57600080fd5b823591506118bb6020840161178c565b90509250929050565b600080604083850312156118d757600080fd5b50508035926020909101359150565b60005b838110156119015781810151838201526020016118e9565b83811115611910576000848401525b50505050565b6000815180845261192e8160208601602086016118e6565b601f017fffffffffffffffffffffffffffffffffffffffffffffffffffffffffffffffe0169290920160200192915050565b8281526040602082015260006119796040830184611916565b949350505050565b60008060006060848603121561199657600080fd5b505081359360208301359350604090920135919050565b6000806000604084860312156119c257600080fd5b83359250602084013567ffffffffffffffff8111156119e057600080fd5b6119ec868287016117dc565b9497909650939450505050565b600060208284031215611a0b57600080fd5b5035919050565b602081526000610a116020830184611916565b60008060008060608587031215611a3b57600080fd5b8435935060208501359250604085013567ffffffffffffffff811115611a6057600080fd5b611a6c878288016117dc565b95989497509550505050565b7f4e487b7100000000000000000000000000000000000000000000000000000000600052604160045260246000fd5b600080600060608486031215611abc57600080fd5b8335925060208401359150604084013567ffffffffffffffff80821115611ae257600080fd5b818601915086601f830112611af657600080fd5b813581811115611b0857611b08611a78565b604051601f82017fffffffffffffffffffffffffffffffffffffffffffffffffffffffffffffffe0908116603f01168101908382118183101715611b4e57611b4e611a78565b81604052828152896020848701011115611b6757600080fd5b8260208601602083013760006020848301015280955050505050509250925092565b73ffffffffffffffffffffffffffffffffffffffff81168114611bab57600080fd5b50565b60008060408385031215611bc157600080fd5b8235611bcc81611b89565b915060208301358015158114611be157600080fd5b809150509250929050565b60008060208385031215611bff57600080fd5b823567ffffffffffffffff80821115611c1757600080fd5b818501915085601f830112611c2b57600080fd5b813581811115611c3a57600080fd5b8660208260051b8501011115611c4f57600080fd5b60209290920196919550909350505050565b6000602080830181845280855180835260408601915060408160051b870101925083870160005b82811015611cd4577fffffffffffffffffffffffffffffffffffffffffffffffffffffffffffffffc0888603018452611cc2858351611916565b94509285019290850190600101611c88565b5092979650505050505050565b60008060408385031215611cf457600080fd5b823591506020830135611be181611b89565b600080600060608486031215611d1b57600080fd5b83359250611d2b6020850161178c565b91506040840135611d3b81611b89565b809150509250925092565b60008060408385031215611d5957600080fd5b8235611d6481611b89565b91506020830135611be181611b89565b8183823760009101908152919050565b8183528181602085013750600060208284010152600060207fffffffffffffffffffffffffffffffffffffffffffffffffffffffffffffffe0601f840116840101905092915050565b602081526000611979602083018486611d84565b60008251611df38184602087016118e6565b9190910192915050565b7f4e487b7100000000000000000000000000000000000000000000000000000000600052603260045260246000fd5b600181811c90821680611e4057607f821691505b602082108103611e79577f4e487b7100000000000000000000000000000000000000000000000000000000600052602260045260246000fd5b50919050565b7f4e487b7100000000000000000000000000000000000000000000000000000000600052601160045260246000fd5b600082821015611ec057611ec0611e7f565b500390565b60008083357fffffffffffffffffffffffffffffffffffffffffffffffffffffffffffffffe1843603018112611efa57600080fd5b83018035915067ffffffffffffffff821115611f1557600080fd5b60200191503681900382131561090057600080fd5b60007fffffffffffffffffffffffffffffffffffffffffffffffffffffffffffffffff8203611f5b57611f5b611e7f565b5060010190565b600060208284031215611f7457600080fd5b8151610a1181611b8956fea264697066735822122058873def6f2aff9fc551e979f5d7f49da2c63177bc6915fb3dcd2b336549938664736f6c634300080d0033",
  "linkReferences": {},
  "deployedLinkReferences": {}
}