{
  "_format": "hh-sol-artifact-1",
  "contractName": "RegistrarController",
  "sourceName": "contracts/registrars/RegistrarController.sol",
  "abi": [
    {
      "inputs": [
        {
          "internalType": "uint256",
          "name": "_minCommitmentAge",
          "type": "uint256"
        },
        {
          "internalType": "uint256",
          "name": "_maxCommitmentAge",
          "type": "uint256"
        },
        {
          "internalType": "contract IPriceOracle",
          "name": "_prices",
          "type": "address"
        },
        {
          "internalType": "contract IRegistry",
          "name": "_registry",
          "type": "address"
        },
        {
          "internalType": "contract IRegistrar",
          "name": "_baseRegistrar",
          "type": "address"
        },
        {
          "internalType": "contract IReverseRegistrar",
          "name": "_reverseRegistrar",
          "type": "address"
        }
      ],
      "stateMutability": "nonpayable",
      "type": "constructor"
    },
    {
      "anonymous": false,
      "inputs": [
        {
          "indexed": false,
          "internalType": "string",
          "name": "name",
          "type": "string"
        },
        {
          "indexed": true,
          "internalType": "bytes32",
          "name": "label",
          "type": "bytes32"
        },
        {
          "indexed": true,
          "internalType": "address",
          "name": "owner",
          "type": "address"
        },
        {
          "indexed": true,
          "internalType": "address",
          "name": "registrar",
          "type": "address"
        },
        {
          "indexed": false,
          "internalType": "uint256",
          "name": "baseCost",
          "type": "uint256"
        },
        {
          "indexed": false,
          "internalType": "uint256",
          "name": "premium",
          "type": "uint256"
        },
        {
          "indexed": false,
          "internalType": "uint256",
          "name": "expires",
          "type": "uint256"
        }
      ],
      "name": "NameRegistered",
      "type": "event"
    },
    {
      "anonymous": false,
      "inputs": [
        {
          "indexed": false,
          "internalType": "string",
          "name": "name",
          "type": "string"
        },
        {
          "indexed": true,
          "internalType": "bytes32",
          "name": "label",
          "type": "bytes32"
        },
        {
          "indexed": true,
          "internalType": "address",
          "name": "registrar",
          "type": "address"
        },
        {
          "indexed": false,
          "internalType": "uint256",
          "name": "cost",
          "type": "uint256"
        },
        {
          "indexed": false,
          "internalType": "uint256",
          "name": "expires",
          "type": "uint256"
        }
      ],
      "name": "NameRenewed",
      "type": "event"
    },
    {
      "anonymous": false,
      "inputs": [
        {
          "indexed": true,
          "internalType": "address",
          "name": "previousOwner",
          "type": "address"
        },
        {
          "indexed": true,
          "internalType": "address",
          "name": "newOwner",
          "type": "address"
        }
      ],
      "name": "OwnershipTransferred",
      "type": "event"
    },
    {
      "anonymous": false,
      "inputs": [
        {
          "indexed": true,
          "internalType": "address",
          "name": "token",
          "type": "address"
        }
      ],
      "name": "PaymentChanged",
      "type": "event"
    },
    {
      "anonymous": false,
      "inputs": [
        {
          "indexed": true,
          "internalType": "address",
          "name": "registrar",
          "type": "address"
        },
        {
          "indexed": true,
          "internalType": "bytes32",
          "name": "label",
          "type": "bytes32"
        }
      ],
      "name": "RegistrarAdded",
      "type": "event"
    },
    {
      "anonymous": false,
      "inputs": [
        {
          "indexed": true,
          "internalType": "address",
          "name": "registrar",
          "type": "address"
        },
        {
          "indexed": true,
          "internalType": "bytes32",
          "name": "label",
          "type": "bytes32"
        }
      ],
      "name": "RegistrarRemoved",
      "type": "event"
    },
    {
      "anonymous": false,
      "inputs": [
        {
          "indexed": true,
          "internalType": "bytes32",
          "name": "role",
          "type": "bytes32"
        },
        {
          "indexed": true,
          "internalType": "bytes32",
          "name": "previousAdminRole",
          "type": "bytes32"
        },
        {
          "indexed": true,
          "internalType": "bytes32",
          "name": "newAdminRole",
          "type": "bytes32"
        }
      ],
      "name": "RoleAdminChanged",
      "type": "event"
    },
    {
      "anonymous": false,
      "inputs": [
        {
          "indexed": true,
          "internalType": "bytes32",
          "name": "role",
          "type": "bytes32"
        },
        {
          "indexed": true,
          "internalType": "address",
          "name": "account",
          "type": "address"
        },
        {
          "indexed": true,
          "internalType": "address",
          "name": "sender",
          "type": "address"
        }
      ],
      "name": "RoleGranted",
      "type": "event"
    },
    {
      "anonymous": false,
      "inputs": [
        {
          "indexed": true,
          "internalType": "bytes32",
          "name": "role",
          "type": "bytes32"
        },
        {
          "indexed": true,
          "internalType": "address",
          "name": "account",
          "type": "address"
        },
        {
          "indexed": true,
          "internalType": "address",
          "name": "sender",
          "type": "address"
        }
      ],
      "name": "RoleRevoked",
      "type": "event"
    },
    {
      "inputs": [],
      "name": "DEFAULT_ADMIN_ROLE",
      "outputs": [
        {
          "internalType": "bytes32",
          "name": "",
          "type": "bytes32"
        }
      ],
      "stateMutability": "view",
      "type": "function"
    },
    {
      "inputs": [],
      "name": "MIN_REGISTRATION_DURATION",
      "outputs": [
        {
          "internalType": "uint256",
          "name": "",
          "type": "uint256"
        }
      ],
      "stateMutability": "view",
      "type": "function"
    },
    {
      "inputs": [],
      "name": "REGISTER_ADMIN",
      "outputs": [
        {
          "internalType": "bytes32",
          "name": "",
          "type": "bytes32"
        }
      ],
      "stateMutability": "view",
      "type": "function"
    },
    {
      "inputs": [
        {
          "internalType": "address",
          "name": "_registrar",
          "type": "address"
        }
      ],
      "name": "addRegistrar",
      "outputs": [],
      "stateMutability": "nonpayable",
      "type": "function"
    },
    {
      "inputs": [
        {
          "internalType": "string",
          "name": "name",
          "type": "string"
        },
        {
          "internalType": "address",
          "name": "owner",
          "type": "address"
        },
        {
          "internalType": "uint256",
          "name": "duration",
          "type": "uint256"
        },
        {
          "internalType": "address",
          "name": "resolver",
          "type": "address"
        },
        {
          "internalType": "bytes[]",
          "name": "data",
          "type": "bytes[]"
        },
        {
          "internalType": "bool",
          "name": "reverseRecord",
          "type": "bool"
        },
        {
          "internalType": "bytes32",
          "name": "node",
          "type": "bytes32"
        }
      ],
      "name": "adminRegister",
      "outputs": [],
      "stateMutability": "nonpayable",
      "type": "function"
    },
    {
      "inputs": [
        {
          "internalType": "string",
          "name": "name",
          "type": "string"
        },
        {
          "internalType": "bytes32",
          "name": "node",
          "type": "bytes32"
        }
      ],
      "name": "available",
      "outputs": [
        {
          "internalType": "bool",
          "name": "",
          "type": "bool"
        }
      ],
      "stateMutability": "view",
      "type": "function"
    },
    {
      "inputs": [
        {
          "internalType": "bytes32",
          "name": "commitment",
          "type": "bytes32"
        }
      ],
      "name": "commit",
      "outputs": [],
      "stateMutability": "nonpayable",
      "type": "function"
    },
    {
      "inputs": [
        {
          "internalType": "bytes32",
          "name": "",
          "type": "bytes32"
        }
      ],
      "name": "commitments",
      "outputs": [
        {
          "internalType": "uint256",
          "name": "",
          "type": "uint256"
        }
      ],
      "stateMutability": "view",
      "type": "function"
    },
    {
      "inputs": [
        {
          "internalType": "bytes32",
          "name": "role",
          "type": "bytes32"
        }
      ],
      "name": "getRoleAdmin",
      "outputs": [
        {
          "internalType": "bytes32",
          "name": "",
          "type": "bytes32"
        }
      ],
      "stateMutability": "view",
      "type": "function"
    },
    {
      "inputs": [
        {
          "internalType": "bytes32",
          "name": "role",
          "type": "bytes32"
        },
        {
          "internalType": "uint256",
          "name": "index",
          "type": "uint256"
        }
      ],
      "name": "getRoleMember",
      "outputs": [
        {
          "internalType": "address",
          "name": "",
          "type": "address"
        }
      ],
      "stateMutability": "view",
      "type": "function"
    },
    {
      "inputs": [
        {
          "internalType": "bytes32",
          "name": "role",
          "type": "bytes32"
        }
      ],
      "name": "getRoleMemberCount",
      "outputs": [
        {
          "internalType": "uint256",
          "name": "",
          "type": "uint256"
        }
      ],
      "stateMutability": "view",
      "type": "function"
    },
    {
      "inputs": [
        {
          "internalType": "bytes32",
          "name": "role",
          "type": "bytes32"
        },
        {
          "internalType": "address",
          "name": "account",
          "type": "address"
        }
      ],
      "name": "grantRole",
      "outputs": [],
      "stateMutability": "nonpayable",
      "type": "function"
    },
    {
      "inputs": [
        {
          "internalType": "bytes32",
          "name": "role",
          "type": "bytes32"
        },
        {
          "internalType": "address",
          "name": "account",
          "type": "address"
        }
      ],
      "name": "hasRole",
      "outputs": [
        {
          "internalType": "bool",
          "name": "",
          "type": "bool"
        }
      ],
      "stateMutability": "view",
      "type": "function"
    },
    {
      "inputs": [
        {
          "internalType": "string",
          "name": "name",
          "type": "string"
        },
        {
          "internalType": "address",
          "name": "owner",
          "type": "address"
        },
        {
          "internalType": "uint256",
          "name": "duration",
          "type": "uint256"
        },
        {
          "internalType": "bytes32",
          "name": "secret",
          "type": "bytes32"
        },
        {
          "internalType": "address",
          "name": "resolver",
          "type": "address"
        },
        {
          "internalType": "bytes[]",
          "name": "data",
          "type": "bytes[]"
        },
        {
          "internalType": "bool",
          "name": "reverseRecord",
          "type": "bool"
        }
      ],
      "name": "makeCommitment",
      "outputs": [
        {
          "internalType": "bytes32",
          "name": "",
          "type": "bytes32"
        }
      ],
      "stateMutability": "pure",
      "type": "function"
    },
    {
      "inputs": [],
      "name": "maxCommitmentAge",
      "outputs": [
        {
          "internalType": "uint256",
          "name": "",
          "type": "uint256"
        }
      ],
      "stateMutability": "view",
      "type": "function"
    },
    {
      "inputs": [],
      "name": "minCommitmentAge",
      "outputs": [
        {
          "internalType": "uint256",
          "name": "",
          "type": "uint256"
        }
      ],
      "stateMutability": "view",
      "type": "function"
    },
    {
      "inputs": [],
      "name": "owner",
      "outputs": [
        {
          "internalType": "address",
          "name": "",
          "type": "address"
        }
      ],
      "stateMutability": "view",
      "type": "function"
    },
    {
      "inputs": [],
      "name": "paymentToken",
      "outputs": [
        {
          "internalType": "contract IERC20",
          "name": "",
          "type": "address"
        }
      ],
      "stateMutability": "view",
      "type": "function"
    },
    {
      "inputs": [],
      "name": "prices",
      "outputs": [
        {
          "internalType": "contract IPriceOracle",
          "name": "",
          "type": "address"
        }
      ],
      "stateMutability": "view",
      "type": "function"
    },
    {
      "inputs": [
        {
          "internalType": "string",
          "name": "name",
          "type": "string"
        },
        {
          "internalType": "address",
          "name": "owner",
          "type": "address"
        },
        {
          "internalType": "uint256",
          "name": "duration",
          "type": "uint256"
        },
        {
          "internalType": "bytes32",
          "name": "secret",
          "type": "bytes32"
        },
        {
          "internalType": "address",
          "name": "resolver",
          "type": "address"
        },
        {
          "internalType": "bytes[]",
          "name": "data",
          "type": "bytes[]"
        },
        {
          "internalType": "bool",
          "name": "reverseRecord",
          "type": "bool"
        },
        {
          "internalType": "bytes32",
          "name": "node",
          "type": "bytes32"
        }
      ],
      "name": "register",
      "outputs": [],
      "stateMutability": "payable",
      "type": "function"
    },
    {
      "inputs": [
        {
          "internalType": "bytes32",
          "name": "",
          "type": "bytes32"
        }
      ],
      "name": "registrars",
      "outputs": [
        {
          "internalType": "contract IRegistrar",
          "name": "",
          "type": "address"
        }
      ],
      "stateMutability": "view",
      "type": "function"
    },
    {
      "inputs": [],
      "name": "registry",
      "outputs": [
        {
          "internalType": "contract IRegistry",
          "name": "",
          "type": "address"
        }
      ],
      "stateMutability": "view",
      "type": "function"
    },
    {
      "inputs": [
        {
          "internalType": "address",
          "name": "_registrar",
          "type": "address"
        }
      ],
      "name": "removeRegistrar",
      "outputs": [],
      "stateMutability": "nonpayable",
      "type": "function"
    },
    {
      "inputs": [
        {
          "internalType": "string",
          "name": "name",
          "type": "string"
        },
        {
          "internalType": "uint256",
          "name": "duration",
          "type": "uint256"
        },
        {
          "internalType": "bytes32",
          "name": "node",
          "type": "bytes32"
        }
      ],
      "name": "renew",
      "outputs": [],
      "stateMutability": "payable",
      "type": "function"
    },
    {
      "inputs": [],
      "name": "renounceOwnership",
      "outputs": [],
      "stateMutability": "nonpayable",
      "type": "function"
    },
    {
      "inputs": [
        {
          "internalType": "bytes32",
          "name": "role",
          "type": "bytes32"
        },
        {
          "internalType": "address",
          "name": "account",
          "type": "address"
        }
      ],
      "name": "renounceRole",
      "outputs": [],
      "stateMutability": "nonpayable",
      "type": "function"
    },
    {
      "inputs": [
        {
          "internalType": "string",
          "name": "name",
          "type": "string"
        },
        {
          "internalType": "uint256",
          "name": "duration",
          "type": "uint256"
        },
        {
          "internalType": "bytes32",
          "name": "node",
          "type": "bytes32"
        }
      ],
      "name": "rentPrice",
      "outputs": [
        {
          "components": [
            {
              "internalType": "uint256",
              "name": "base",
              "type": "uint256"
            },
            {
              "internalType": "uint256",
              "name": "premium",
              "type": "uint256"
            }
          ],
          "internalType": "struct IPriceOracle.Price",
          "name": "price",
          "type": "tuple"
        }
      ],
      "stateMutability": "view",
      "type": "function"
    },
    {
      "inputs": [],
      "name": "reverseRegistrar",
      "outputs": [
        {
          "internalType": "contract IReverseRegistrar",
          "name": "",
          "type": "address"
        }
      ],
      "stateMutability": "view",
      "type": "function"
    },
    {
      "inputs": [
        {
          "internalType": "bytes32",
          "name": "role",
          "type": "bytes32"
        },
        {
          "internalType": "address",
          "name": "account",
          "type": "address"
        }
      ],
      "name": "revokeRole",
      "outputs": [],
      "stateMutability": "nonpayable",
      "type": "function"
    },
    {
      "inputs": [
        {
          "internalType": "address",
          "name": "token",
          "type": "address"
        }
      ],
      "name": "setPaymentToken",
      "outputs": [],
      "stateMutability": "nonpayable",
      "type": "function"
    },
    {
      "inputs": [
        {
          "internalType": "bytes4",
          "name": "interfaceId",
          "type": "bytes4"
        }
      ],
      "name": "supportsInterface",
      "outputs": [
        {
          "internalType": "bool",
          "name": "",
          "type": "bool"
        }
      ],
      "stateMutability": "view",
      "type": "function"
    },
    {
      "inputs": [
        {
          "internalType": "address",
          "name": "newOwner",
          "type": "address"
        }
      ],
      "name": "transferOwnership",
      "outputs": [],
      "stateMutability": "nonpayable",
      "type": "function"
    },
    {
      "inputs": [
        {
          "internalType": "string",
          "name": "name",
          "type": "string"
        }
      ],
      "name": "valid",
      "outputs": [
        {
          "internalType": "bool",
          "name": "",
          "type": "bool"
        }
      ],
      "stateMutability": "pure",
      "type": "function"
    },
    {
      "inputs": [],
      "name": "withdraw",
      "outputs": [],
      "stateMutability": "nonpayable",
      "type": "function"
    },
    {
      "inputs": [],
      "name": "withdrawERC20",
      "outputs": [],
      "stateMutability": "nonpayable",
      "type": "function"
    }
  ],
  "bytecode": "0x6101206040523480156200001257600080fd5b50604051620045a6380380620045a683398101604081905262000035916200017d565b620000403362000114565b8585116200004d57600080fd5b608086905260a08590526001600160a01b0380851660c05283811660e05260408051630ddf7fcb60e41b8152905184926003926000929185169163ddf7fcb0916004808201926020929091908290030181865afa158015620000b3573d6000803e3d6000fd5b505050506040513d601f19601f82011682018060405250810190620000d99190620001f9565b8152602081019190915260400160002080546001600160a01b0319166001600160a01b03928316179055166101005250620002139350505050565b600080546001600160a01b038381166001600160a01b0319831681178455604051919092169283917f8be0079c531659141344cd1fd0a4f28419497f9722a3daafe3b4186f6b6457e09190a35050565b6001600160a01b03811681146200017a57600080fd5b50565b60008060008060008060c087890312156200019757600080fd5b86519550602087015194506040870151620001b28162000164565b6060880151909450620001c58162000164565b6080880151909350620001d88162000164565b60a0880151909250620001eb8162000164565b809150509295509295509295565b6000602082840312156200020c57600080fd5b5051919050565b60805160a05160c05160e0516101005161431d620002896000396000818161043f015261267d01526000818161040b01528181610a0f0152611e3301526000818161066e01526121d001526000818161063a015281816122c70152612c1b0152600081816104ed0152612b6b015261431d6000f3fe6080604052600436106102345760003560e01c80638ad18bb611610138578063ca15c873116100b0578063d74d24191161007f578063f14fcbc811610064578063f14fcbc8146106fe578063f2fde38b1461071e578063f9e0b29c1461073e57600080fd5b8063d74d2419146106b0578063d9e39df1146106c357600080fd5b8063ca15c87314610608578063ce1e09c014610628578063d3419bf31461065c578063d547741f1461069057600080fd5b806391d1485411610107578063a217fddf116100ec578063a217fddf146105b3578063af92a693146105c8578063ba904eed146105e857600080fd5b806391d148541461054d5780639791c0971461059357600080fd5b80638ad18bb6146104a55780638d839ffe146104db5780638da5cb5b1461050f5780639010d07c1461052d57600080fd5b806336568abe116101cb578063715018a61161019a578063808698531161017f578063808698531461042d578063839df945146104615780638a95b09f1461048e57600080fd5b8063715018a6146103e45780637b103999146103f957600080fd5b806336568abe1461036f5780633ccfd60b1461038f5780633d4aa89e146103a45780636a326ab1146103c457600080fd5b80632595eacb116102075780632595eacb146102e25780632ed6d5e8146103025780632f2ff15d146103175780633013ce291461033757600080fd5b806301ffc9a71461023957806305946dd91461026e57806318026ad114610290578063248a9ca3146102a3575b600080fd5b34801561024557600080fd5b50610259610254366004613636565b610772565b60405190151581526020015b60405180910390f35b34801561027a57600080fd5b5061028e610289366004613730565b61081a565b005b61028e61029e3660046137ea565b610d24565b3480156102af57600080fd5b506102d46102be36600461383b565b6000908152600160208190526040909120015490565b604051908152602001610265565b3480156102ee57600080fd5b506102596102fd366004613932565b610f4c565b34801561030e57600080fd5b5061028e611001565b34801561032357600080fd5b5061028e610332366004613977565b6110b0565b34801561034357600080fd5b50600554610357906001600160a01b031681565b6040516001600160a01b039091168152602001610265565b34801561037b57600080fd5b5061028e61038a366004613977565b6110db565b34801561039b57600080fd5b5061028e611167565b3480156103b057600080fd5b506102d46103bf3660046139a3565b6111a4565b3480156103d057600080fd5b5061028e6103df366004613a55565b611274565b3480156103f057600080fd5b5061028e6112de565b34801561040557600080fd5b506103577f000000000000000000000000000000000000000000000000000000000000000081565b34801561043957600080fd5b506103577f000000000000000000000000000000000000000000000000000000000000000081565b34801561046d57600080fd5b506102d461047c36600461383b565b60046020526000908152604090205481565b34801561049a57600080fd5b506102d46224ea0081565b3480156104b157600080fd5b506103576104c036600461383b565b6003602052600090815260409020546001600160a01b031681565b3480156104e757600080fd5b506102d47f000000000000000000000000000000000000000000000000000000000000000081565b34801561051b57600080fd5b506000546001600160a01b0316610357565b34801561053957600080fd5b50610357610548366004613a70565b6112f0565b34801561055957600080fd5b50610259610568366004613977565b60009182526001602090815260408084206001600160a01b0393909316845291905290205460ff1690565b34801561059f57600080fd5b506102596105ae366004613a92565b61130f565b3480156105bf57600080fd5b506102d4600081565b3480156105d457600080fd5b5061028e6105e3366004613a55565b6116c4565b3480156105f457600080fd5b5061028e610603366004613a55565b611804565b34801561061457600080fd5b506102d461062336600461383b565b611a32565b34801561063457600080fd5b506102d47f000000000000000000000000000000000000000000000000000000000000000081565b34801561066857600080fd5b506103577f000000000000000000000000000000000000000000000000000000000000000081565b34801561069c57600080fd5b5061028e6106ab366004613977565b611a49565b61028e6106be366004613ac7565b611a6f565b3480156106cf57600080fd5b506106e36106de366004613b8c565b61216d565b60408051825181526020928301519281019290925201610265565b34801561070a57600080fd5b5061028e61071936600461383b565b6122b0565b34801561072a57600080fd5b5061028e610739366004613a55565b612309565b34801561074a57600080fd5b506102d47fa17f3ba989a4712b364644214764565afa39e39fc6df509e7af43415c3dd52d881565b60007fffffffff0000000000000000000000000000000000000000000000000000000082167f01ffc9a700000000000000000000000000000000000000000000000000000000148061080557507fffffffff0000000000000000000000000000000000000000000000000000000082167fea3eb2da00000000000000000000000000000000000000000000000000000000145b80610814575061081482612396565b92915050565b7fa17f3ba989a4712b364644214764565afa39e39fc6df509e7af43415c3dd52d8610844816123ec565b60006001600160a01b03871615610b90576000838152600360205260408082205490517fd393c8710000000000000000000000000000000000000000000000000000000081526001600160a01b039091169063d393c871906108b0908f908f9030908f90600401613c05565b60408051808303816000875af11580156108ce573d6000803e3d6000fd5b505050506040513d601f19601f820116820180604052508101906108f29190613c35565b60008681526003602090815260408083205481517fddf7fcb0000000000000000000000000000000000000000000000000000000008152915194975094955091936001600160a01b03169263ddf7fcb09260048082019392918290030181865afa158015610964573d6000803e3d6000fd5b505050506040513d601f19601f820116820180604052508101906109889190613c59565b8d8d604051610998929190613c72565b6040519081900381206109b79291602001918252602082015260400190565b60408051808303601f190181529082905280516020909101207f1896f70a000000000000000000000000000000000000000000000000000000008252600482018190526001600160a01b038b811660248401529092507f00000000000000000000000000000000000000000000000000000000000000001690631896f70a90604401600060405180830381600087803b158015610a5357600080fd5b505af1158015610a67573d6000803e3d6000fd5b505050600086815260036020526040908190205490517f28ed4f6c000000000000000000000000000000000000000000000000000000008152600481018590526001600160a01b038e8116602483015290911691506328ed4f6c90604401600060405180830381600087803b158015610adf57600080fd5b505af1158015610af3573d6000803e3d6000fd5b505050600086815260036020526040908190205490517f23b872dd0000000000000000000000000000000000000000000000000000000081523060048201526001600160a01b038e811660248301526044820186905290911691506323b872dd90606401600060405180830381600087803b158015610b7157600080fd5b505af1158015610b85573d6000803e3d6000fd5b505050505050610c32565b600083815260036020526040908190205490517fd393c8710000000000000000000000000000000000000000000000000000000081526001600160a01b039091169063d393c87190610bec908e908e908e908e90600401613c05565b60408051808303816000875af1158015610c0a573d6000803e3d6000fd5b505050506040513d601f19601f82011682018060405250810190610c2e9190613c35565b9150505b610c56878c8c604051610c46929190613c72565b60405180910390208888876123f6565b8315610ca057610ca08b8b8080601f0160208091040260200160405190810160405280939291908181526020018383808284376000920191909152508b925033915087905061263c565b600083815260036020526040908190205490516001600160a01b03918216918b1690610ccf908e908e90613c72565b60405180910390207f17c5fb3bf95cf3080f82cf190f4b5d08f5bbe7b0df41917e90d0d9d825ce9aea8e8e60008088604051610d0f959493929190613c82565b60405180910390a45050505050505050505050565b60008484604051610d36929190613c72565b604051809103902090506000610d8586868080601f01602080910402602001604051908101604052809392919081815260200183838082843760009201919091525088925087915061216d9050565b8051909150341015610e045760405162461bcd60e51b815260206004820152603a60248201527f526567697374726172436f6e74726f6c6c65723a204e6f7420656e6f7567682060448201527f45746865722070726f766964656420666f722072656e6577616c00000000000060648201526084015b60405180910390fd5b6000838152600360205260408082205490517fc475abff00000000000000000000000000000000000000000000000000000000815260048101859052602481018790526001600160a01b039091169063c475abff906044016020604051808303816000875af1158015610e7b573d6000803e3d6000fd5b505050506040513d601f19601f82011682018060405250810190610e9f9190613c59565b8251909150341115610ee757815133906108fc90610ebd9034613ce2565b6040518115909202916000818181858888f19350505050158015610ee5573d6000803e3d6000fd5b505b600084815260036020526040908190205490516001600160a01b039091169084907f42ad0fb3f431843882fafa6483115d093f86443f4952c2c75bd298aa3e8531de90610f3b908b908b9034908890613cf9565b60405180910390a350505050505050565b81516020830120600090610f5f8461130f565b8015610ff95750600083815260036020526040908190205490517f96e494e8000000000000000000000000000000000000000000000000000000008152600481018390526001600160a01b03909116906396e494e890602401602060405180830381865afa158015610fd5573d6000803e3d6000fd5b505050506040513d601f19601f82011682018060405250810190610ff99190613d20565b949350505050565b6110ae6110166000546001600160a01b031690565b6005546040517f70a082310000000000000000000000000000000000000000000000000000000081523060048201526001600160a01b03909116906370a0823190602401602060405180830381865afa158015611077573d6000803e3d6000fd5b505050506040513d601f19601f8201168201806040525081019061109b9190613c59565b6005546001600160a01b03169190612788565b565b600082815260016020819052604090912001546110cc816123ec565b6110d68383612831565b505050565b6001600160a01b03811633146111595760405162461bcd60e51b815260206004820152602f60248201527f416363657373436f6e74726f6c3a2063616e206f6e6c792072656e6f756e636560448201527f20726f6c657320666f722073656c6600000000000000000000000000000000006064820152608401610dfb565b6111638282612853565b5050565b600080546040516001600160a01b03909116914780156108fc02929091818181858888f193505050501580156111a1573d6000803e3d6000fd5b50565b875160208901206000908315611230576001600160a01b0386166112305760405162461bcd60e51b815260206004820152603f60248201527f526567697374726172436f6e74726f6c6c65723a205265736f6c76657220697360448201527f207265717569726564207768656e206461746120697320737570706c696564006064820152608401610dfb565b8089898888888c8960405160200161124f989796959493929190613d3d565b6040516020818303038152906040528051906020012091505098975050505050505050565b61127c612875565b600580547fffffffffffffffffffffffff0000000000000000000000000000000000000000166001600160a01b0383169081179091556040517fc991d12e1bf4601b4b112d5cc3d5b4a407956b76b6acd269408386564a01aafe90600090a250565b6112e6612875565b6110ae60006128cf565b60008281526002602052604081206113089083612937565b9392505050565b6000600361131c83612943565b101561132a57506000919050565b8160005b6002825161133c9190613ce2565b8110156116ba5781818151811061135557611355613e53565b6020910101517fff00000000000000000000000000000000000000000000000000000000000000167fe20000000000000000000000000000000000000000000000000000000000000014801561140d5750816113b2826001613e82565b815181106113c2576113c2613e53565b6020910101517fff00000000000000000000000000000000000000000000000000000000000000167f8000000000000000000000000000000000000000000000000000000000000000145b15611566578161141e826002613e82565b8151811061142e5761142e613e53565b6020910101517fff00000000000000000000000000000000000000000000000000000000000000167f8b0000000000000000000000000000000000000000000000000000000000000014806114e557508161148a826002613e82565b8151811061149a5761149a613e53565b6020910101517fff00000000000000000000000000000000000000000000000000000000000000167f8c00000000000000000000000000000000000000000000000000000000000000145b806115525750816114f7826002613e82565b8151811061150757611507613e53565b6020910101517fff00000000000000000000000000000000000000000000000000000000000000167f8d00000000000000000000000000000000000000000000000000000000000000145b15611561575060009392505050565b6116a8565b81818151811061157857611578613e53565b01602001517fff00000000000000000000000000000000000000000000000000000000000000167fef00000000000000000000000000000000000000000000000000000000000000036116a857816115d1826001613e82565b815181106115e1576115e1613e53565b6020910101517fff00000000000000000000000000000000000000000000000000000000000000167fbb0000000000000000000000000000000000000000000000000000000000000014801561169957508161163e826002613e82565b8151811061164e5761164e613e53565b6020910101517fff00000000000000000000000000000000000000000000000000000000000000167fbf00000000000000000000000000000000000000000000000000000000000000145b156116a8575060009392505050565b806116b281613e9a565b91505061132e565b5060019392505050565b6116cc612875565b60008190508060036000836001600160a01b031663ddf7fcb06040518163ffffffff1660e01b8152600401602060405180830381865afa158015611714573d6000803e3d6000fd5b505050506040513d601f19601f820116820180604052508101906117389190613c59565b815260200190815260200160002060006101000a8154816001600160a01b0302191690836001600160a01b03160217905550806001600160a01b031663ddf7fcb06040518163ffffffff1660e01b8152600401602060405180830381865afa1580156117a8573d6000803e3d6000fd5b505050506040513d601f19601f820116820180604052508101906117cc9190613c59565b6040516001600160a01b038416907f680e63bdfc3677811bd920d48519024d41ed4633bfb696815874997a5a6d842990600090a35050565b61180c612875565b6000819050806001600160a01b031660036000836001600160a01b031663ddf7fcb06040518163ffffffff1660e01b8152600401602060405180830381865afa15801561185d573d6000803e3d6000fd5b505050506040513d601f19601f820116820180604052508101906118819190613c59565b81526020810191909152604001600020546001600160a01b03161461190e5760405162461bcd60e51b815260206004820152602660248201527f526567697374726172436f6e74726f6c6c65723a20496e76616c69642072656760448201527f69737472617200000000000000000000000000000000000000000000000000006064820152608401610dfb565b60036000826001600160a01b031663ddf7fcb06040518163ffffffff1660e01b8152600401602060405180830381865afa158015611950573d6000803e3d6000fd5b505050506040513d601f19601f820116820180604052508101906119749190613c59565b815260200190815260200160002060006101000a8154906001600160a01b030219169055806001600160a01b031663ddf7fcb06040518163ffffffff1660e01b8152600401602060405180830381865afa1580156119d6573d6000803e3d6000fd5b505050506040513d601f19601f820116820180604052508101906119fa9190613c59565b6040516001600160a01b038416907f8801042638f34d6ae18af8b595824fdbfcf013678221a6b85dddfb9adbd4e67590600090a35050565b600081815260026020526040812061081490612b4a565b60008281526001602081905260409091200154611a65816123ec565b6110d68383612853565b6000611ab48b8b8080601f0160208091040260200160405190810160405280939291908181526020018383808284376000920191909152508c925086915061216d9050565b60208101518151919250611ac791613e82565b6005546040517fdd62ed3e0000000000000000000000000000000000000000000000000000000081523360048201523060248201526001600160a01b039091169063dd62ed3e90604401602060405180830381865afa158015611b2e573d6000803e3d6000fd5b505050506040513d601f19601f82011682018060405250810190611b529190613c59565b1015611bc65760405162461bcd60e51b815260206004820152602e60248201527f526567697374726172436f6e74726f6c6c65723a204e6f7420656e6f7567682060448201527f66756e64732070726f76696465640000000000000000000000000000000000006064820152608401610dfb565b611c698b8b8080601f016020809104026020016040519081016040528093929190818152602001838380828437600081840152601f19601f8201169050808301925050505050505089611c638e8e8080601f016020809104026020016040519081016040528093929190818152602001838380828437600081840152601f19601f820116905080830192505050505050508d8d8d8d8d8d8d6111a4565b85612b54565b60006001600160a01b03871615611fb45760006003600085815260200190815260200160002060009054906101000a90046001600160a01b03166001600160a01b031663d393c8718e8e308e6040518563ffffffff1660e01b8152600401611cd49493929190613c05565b60408051808303816000875af1158015611cf2573d6000803e3d6000fd5b505050506040513d601f19601f82011682018060405250810190611d169190613c35565b60008681526003602090815260408083205481517fddf7fcb0000000000000000000000000000000000000000000000000000000008152915194975094955091936001600160a01b03169263ddf7fcb09260048082019392918290030181865afa158015611d88573d6000803e3d6000fd5b505050506040513d601f19601f82011682018060405250810190611dac9190613c59565b8e8e604051611dbc929190613c72565b604051908190038120611ddb9291602001918252602082015260400190565b60408051808303601f190181529082905280516020909101207f1896f70a000000000000000000000000000000000000000000000000000000008252600482018190526001600160a01b038b811660248401529092507f00000000000000000000000000000000000000000000000000000000000000001690631896f70a90604401600060405180830381600087803b158015611e7757600080fd5b505af1158015611e8b573d6000803e3d6000fd5b505050600086815260036020526040908190205490517f28ed4f6c000000000000000000000000000000000000000000000000000000008152600481018590526001600160a01b038f8116602483015290911691506328ed4f6c90604401600060405180830381600087803b158015611f0357600080fd5b505af1158015611f17573d6000803e3d6000fd5b505050600086815260036020526040908190205490517f23b872dd0000000000000000000000000000000000000000000000000000000081523060048201526001600160a01b038f811660248301526044820186905290911691506323b872dd90606401600060405180830381600087803b158015611f9557600080fd5b505af1158015611fa9573d6000803e3d6000fd5b505050505050612056565b600083815260036020526040908190205490517fd393c8710000000000000000000000000000000000000000000000000000000081526001600160a01b039091169063d393c87190612010908f908f908f908f90600401613c05565b60408051808303816000875af115801561202e573d6000803e3d6000fd5b505050506040513d601f19601f820116820180604052508101906120529190613c35565b9150505b61206a878d8d604051610c46929190613c72565b83156120b4576120b48c8c8080601f0160208091040260200160405190810160405280939291908181526020018383808284376000920191909152508b925033915087905061263c565b600083815260036020526040908190205490516001600160a01b03918216918c16906120e3908f908f90613c72565b60405180910390207f17c5fb3bf95cf3080f82cf190f4b5d08f5bbe7b0df41917e90d0d9d825ce9aea8f8f876000015188602001518860405161212a959493929190613c82565b60405180910390a461215f33308460200151856000015161214b9190613e82565b6005546001600160a01b0316929190612d54565b505050505050505050505050565b604080518082018252600080825260208083018290528651878201208583526003909152908390205492517fd6e4fa8600000000000000000000000000000000000000000000000000000000815260048101829052919290916001600160a01b037f00000000000000000000000000000000000000000000000000000000000000008116926350e9a7159289929091169063d6e4fa8690602401602060405180830381865afa158015612224573d6000803e3d6000fd5b505050506040513d601f19601f820116820180604052508101906122489190613c59565b876040518463ffffffff1660e01b815260040161226793929190613f2a565b6040805180830381865afa158015612283573d6000803e3d6000fd5b505050506040513d601f19601f820116820180604052508101906122a79190613f4f565b95945050505050565b60008181526004602052604090205442906122ec907f000000000000000000000000000000000000000000000000000000000000000090613e82565b106122f657600080fd5b6000908152600460205260409020429055565b612311612875565b6001600160a01b03811661238d5760405162461bcd60e51b815260206004820152602660248201527f4f776e61626c653a206e6577206f776e657220697320746865207a65726f206160448201527f64647265737300000000000000000000000000000000000000000000000000006064820152608401610dfb565b6111a1816128cf565b60007fffffffff0000000000000000000000000000000000000000000000000000000082167f5a05180f000000000000000000000000000000000000000000000000000000001480610814575061081482612da5565b6111a18133612e3c565b60008181526003602090815260408083205481517fddf7fcb000000000000000000000000000000000000000000000000000000000815291516001600160a01b039091169263ddf7fcb092600480820193918290030181865afa158015612461573d6000803e3d6000fd5b505050506040513d601f19601f820116820180604052508101906124859190613c59565b604080516020810192909252810186905260600160405160208183030381529060405280519060200120905060005b838110156126335760008585838181106124d0576124d0613e53565b90506020028101906124e29190613f9e565b6124f191602491600491614003565b6124fa9161402d565b90508281146125975760405162461bcd60e51b815260206004820152604e60248201527f526567697374726172436f6e74726f6c6c65723a204e616d6568617368206f6e60448201527f207265636f726420646f206e6f74206d6174636820746865206e616d6520626560648201527f696e672072656769737465726564000000000000000000000000000000000000608482015260a401610dfb565b61261e8686848181106125ac576125ac613e53565b90506020028101906125be9190613f9e565b8080601f016020809104026020016040519081016040528093929190818152602001838380828437600092019190915250506040805160608101909152602980825290925090506142bf60208301396001600160a01b038b169190612ebc565b5050808061262b90613e9a565b9150506124b4565b50505050505050565b6000818152600360205260408082205481517f2d55143200000000000000000000000000000000000000000000000000000000815291516001600160a01b037f0000000000000000000000000000000000000000000000000000000000000000811694637a806d6b94339489948b948d94921692632d5514329260048083019391928290030181865afa1580156126d7573d6000803e3d6000fd5b505050506040513d6000823e601f3d908101601f191682016040526126ff9190810190614069565b6040516020016127109291906140d7565b6040516020818303038152906040526040518563ffffffff1660e01b815260040161273e949392919061412f565b6020604051808303816000875af115801561275d573d6000803e3d6000fd5b505050506040513d601f19601f820116820180604052508101906127819190613c59565b5050505050565b6040516001600160a01b0383166024820152604481018290526110d69084907fa9059cbb00000000000000000000000000000000000000000000000000000000906064015b60408051601f198184030181529190526020810180517bffffffffffffffffffffffffffffffffffffffffffffffffffffffff167fffffffff0000000000000000000000000000000000000000000000000000000090931692909217909152612ecb565b61283b8282612fb0565b60008281526002602052604090206110d69082613055565b61285d828261306a565b60008281526002602052604090206110d6908261310b565b6000546001600160a01b031633146110ae5760405162461bcd60e51b815260206004820181905260248201527f4f776e61626c653a2063616c6c6572206973206e6f7420746865206f776e65726044820152606401610dfb565b600080546001600160a01b038381167fffffffffffffffffffffffff0000000000000000000000000000000000000000831681178455604051919092169283917f8be0079c531659141344cd1fd0a4f28419497f9722a3daafe3b4186f6b6457e09190a35050565b60006113088383613120565b8051600090819081905b80821015612b4157600085838151811061296957612969613e53565b01602001517fff000000000000000000000000000000000000000000000000000000000000001690507f80000000000000000000000000000000000000000000000000000000000000008110156129cc576129c5600184613e82565b9250612b2e565b7fe0000000000000000000000000000000000000000000000000000000000000007fff0000000000000000000000000000000000000000000000000000000000000082161015612a21576129c5600284613e82565b7ff0000000000000000000000000000000000000000000000000000000000000007fff0000000000000000000000000000000000000000000000000000000000000082161015612a76576129c5600384613e82565b7ff8000000000000000000000000000000000000000000000000000000000000007fff0000000000000000000000000000000000000000000000000000000000000082161015612acb576129c5600484613e82565b7ffc000000000000000000000000000000000000000000000000000000000000007fff0000000000000000000000000000000000000000000000000000000000000082161015612b20576129c5600584613e82565b612b2b600684613e82565b92505b5082612b3981613e9a565b93505061294d565b50909392505050565b6000610814825490565b6000828152600460205260409020544290612b90907f000000000000000000000000000000000000000000000000000000000000000090613e82565b1115612c045760405162461bcd60e51b815260206004820152602c60248201527f526567697374726172436f6e74726f6c6c65723a20436f6d6d69746d656e742060448201527f6973206e6f742076616c696400000000000000000000000000000000000000006064820152608401610dfb565b6000828152600460205260409020544290612c40907f000000000000000000000000000000000000000000000000000000000000000090613e82565b11612cb35760405162461bcd60e51b815260206004820152602b60248201527f526567697374726172436f6e74726f6c6c65723a20436f6d6d69746d656e742060448201527f68617320657870697265640000000000000000000000000000000000000000006064820152608401610dfb565b612cbd8482610f4c565b612d2f5760405162461bcd60e51b815260206004820152602860248201527f526567697374726172436f6e74726f6c6c65723a204e616d6520697320756e6160448201527f7661696c61626c650000000000000000000000000000000000000000000000006064820152608401610dfb565b6000828152600460205260408120556224ea00831015612d4e57600080fd5b50505050565b6040516001600160a01b0380851660248301528316604482015260648101829052612d4e9085907f23b872dd00000000000000000000000000000000000000000000000000000000906084016127cd565b60007fffffffff0000000000000000000000000000000000000000000000000000000082167f7965db0b00000000000000000000000000000000000000000000000000000000148061081457507f01ffc9a7000000000000000000000000000000000000000000000000000000007fffffffff00000000000000000000000000000000000000000000000000000000831614610814565b60008281526001602090815260408083206001600160a01b038516845290915290205460ff1661116357612e7a816001600160a01b0316601461314a565b612e8583602061314a565b604051602001612e9692919061416d565b60408051601f198184030181529082905262461bcd60e51b8252610dfb916004016141ee565b6060610ff98484600085613373565b6000612f20826040518060400160405280602081526020017f5361666545524332303a206c6f772d6c6576656c2063616c6c206661696c6564815250856001600160a01b0316612ebc9092919063ffffffff16565b8051909150156110d65780806020019051810190612f3e9190613d20565b6110d65760405162461bcd60e51b815260206004820152602a60248201527f5361666545524332303a204552433230206f7065726174696f6e20646964206e60448201527f6f742073756363656564000000000000000000000000000000000000000000006064820152608401610dfb565b60008281526001602090815260408083206001600160a01b038516845290915290205460ff166111635760008281526001602081815260408084206001600160a01b038616808652925280842080547fffffffffffffffffffffffffffffffffffffffffffffffffffffffffffffff00169093179092559051339285917f2f8788117e7eff1d82e926ec794901d17c78024a50270940304540a733656f0d9190a45050565b6000611308836001600160a01b0384166134bb565b60008281526001602090815260408083206001600160a01b038516845290915290205460ff16156111635760008281526001602090815260408083206001600160a01b038516808552925280832080547fffffffffffffffffffffffffffffffffffffffffffffffffffffffffffffff0016905551339285917ff6391f5c32d9c69d2a47ea670b442974b53935d1edc7fd64eb21e047a839171b9190a45050565b6000611308836001600160a01b03841661350a565b600082600001828154811061313757613137613e53565b9060005260206000200154905092915050565b60606000613159836002614201565b613164906002613e82565b67ffffffffffffffff81111561317c5761317c613854565b6040519080825280601f01601f1916602001820160405280156131a6576020820181803683370190505b5090507f3000000000000000000000000000000000000000000000000000000000000000816000815181106131dd576131dd613e53565b60200101907effffffffffffffffffffffffffffffffffffffffffffffffffffffffffffff1916908160001a9053507f78000000000000000000000000000000000000000000000000000000000000008160018151811061324057613240613e53565b60200101907effffffffffffffffffffffffffffffffffffffffffffffffffffffffffffff1916908160001a905350600061327c846002614201565b613287906001613e82565b90505b6001811115613324577f303132333435363738396162636465660000000000000000000000000000000085600f16601081106132c8576132c8613e53565b1a60f81b8282815181106132de576132de613e53565b60200101907effffffffffffffffffffffffffffffffffffffffffffffffffffffffffffff1916908160001a90535060049490941c9361331d8161423e565b905061328a565b5083156113085760405162461bcd60e51b815260206004820181905260248201527f537472696e67733a20686578206c656e67746820696e73756666696369656e746044820152606401610dfb565b6060824710156133eb5760405162461bcd60e51b815260206004820152602660248201527f416464726573733a20696e73756666696369656e742062616c616e636520666f60448201527f722063616c6c00000000000000000000000000000000000000000000000000006064820152608401610dfb565b6001600160a01b0385163b6134425760405162461bcd60e51b815260206004820152601d60248201527f416464726573733a2063616c6c20746f206e6f6e2d636f6e74726163740000006044820152606401610dfb565b600080866001600160a01b0316858760405161345e9190614273565b60006040518083038185875af1925050503d806000811461349b576040519150601f19603f3d011682016040523d82523d6000602084013e6134a0565b606091505b50915091506134b08282866135fd565b979650505050505050565b600081815260018301602052604081205461350257508154600181810184556000848152602080822090930184905584548482528286019093526040902091909155610814565b506000610814565b600081815260018301602052604081205480156135f357600061352e600183613ce2565b855490915060009061354290600190613ce2565b90508181146135a757600086600001828154811061356257613562613e53565b906000526020600020015490508087600001848154811061358557613585613e53565b6000918252602080832090910192909255918252600188019052604090208390555b85548690806135b8576135b861428f565b600190038181906000526020600020016000905590558560010160008681526020019081526020016000206000905560019350505050610814565b6000915050610814565b6060831561360c575081611308565b82511561361c5782518084602001fd5b8160405162461bcd60e51b8152600401610dfb91906141ee565b60006020828403121561364857600080fd5b81357fffffffff000000000000000000000000000000000000000000000000000000008116811461130857600080fd5b60008083601f84011261368a57600080fd5b50813567ffffffffffffffff8111156136a257600080fd5b6020830191508360208285010111156136ba57600080fd5b9250929050565b80356001600160a01b03811681146136d857600080fd5b919050565b60008083601f8401126136ef57600080fd5b50813567ffffffffffffffff81111561370757600080fd5b6020830191508360208260051b85010111156136ba57600080fd5b80151581146111a157600080fd5b600080600080600080600080600060e08a8c03121561374e57600080fd5b893567ffffffffffffffff8082111561376657600080fd5b6137728d838e01613678565b909b50995089915061378660208d016136c1565b985060408c0135975061379b60608d016136c1565b965060808c01359150808211156137b157600080fd5b506137be8c828d016136dd565b90955093505060a08a01356137d281613722565b8092505060c08a013590509295985092959850929598565b6000806000806060858703121561380057600080fd5b843567ffffffffffffffff81111561381757600080fd5b61382387828801613678565b90989097506020870135966040013595509350505050565b60006020828403121561384d57600080fd5b5035919050565b7f4e487b7100000000000000000000000000000000000000000000000000000000600052604160045260246000fd5b604051601f8201601f1916810167ffffffffffffffff811182821017156138ac576138ac613854565b604052919050565b600067ffffffffffffffff8211156138ce576138ce613854565b50601f01601f191660200190565b600082601f8301126138ed57600080fd5b81356139006138fb826138b4565b613883565b81815284602083860101111561391557600080fd5b816020850160208301376000918101602001919091529392505050565b6000806040838503121561394557600080fd5b823567ffffffffffffffff81111561395c57600080fd5b613968858286016138dc565b95602094909401359450505050565b6000806040838503121561398a57600080fd5b8235915061399a602084016136c1565b90509250929050565b60008060008060008060008060e0898b0312156139bf57600080fd5b883567ffffffffffffffff808211156139d757600080fd5b6139e38c838d016138dc565b99506139f160208c016136c1565b985060408b0135975060608b01359650613a0d60808c016136c1565b955060a08b0135915080821115613a2357600080fd5b50613a308b828c016136dd565b90945092505060c0890135613a4481613722565b809150509295985092959890939650565b600060208284031215613a6757600080fd5b611308826136c1565b60008060408385031215613a8357600080fd5b50508035926020909101359150565b600060208284031215613aa457600080fd5b813567ffffffffffffffff811115613abb57600080fd5b610ff9848285016138dc565b6000806000806000806000806000806101008b8d031215613ae757600080fd5b8a3567ffffffffffffffff80821115613aff57600080fd5b613b0b8e838f01613678565b909c509a508a9150613b1f60208e016136c1565b995060408d0135985060608d01359750613b3b60808e016136c1565b965060a08d0135915080821115613b5157600080fd5b50613b5e8d828e016136dd565b90955093505060c08b0135613b7281613722565b8092505060e08b013590509295989b9194979a5092959850565b600080600060608486031215613ba157600080fd5b833567ffffffffffffffff811115613bb857600080fd5b613bc4868287016138dc565b9660208601359650604090950135949350505050565b818352818160208501375060006020828401015260006020601f19601f840116840101905092915050565b606081526000613c19606083018688613bda565b6001600160a01b03949094166020830152506040015292915050565b60008060408385031215613c4857600080fd5b505080516020909101519092909150565b600060208284031215613c6b57600080fd5b5051919050565b8183823760009101908152919050565b608081526000613c96608083018789613bda565b602083019590955250604081019290925260609091015292915050565b7f4e487b7100000000000000000000000000000000000000000000000000000000600052601160045260246000fd5b600082821015613cf457613cf4613cb3565b500390565b606081526000613d0d606083018688613bda565b6020830194909452506040015292915050565b600060208284031215613d3257600080fd5b815161130881613722565b600060e082018a835260206001600160a01b03808c16828601528a6040860152808a1660608601525060e060808501528187835261010092508285019050828860051b86010192508860005b89811015613e33577fffffffffffffffffffffffffffffffffffffffffffffffffffffffffffffff0087860301835281357fffffffffffffffffffffffffffffffffffffffffffffffffffffffffffffffe18c3603018112613dea57600080fd5b8b01803567ffffffffffffffff811115613e0357600080fd5b8036038d1315613e1257600080fd5b613e1f8782888501613bda565b965050509183019190830190600101613d89565b5050505060a08301949094525090151560c0909101529695505050505050565b7f4e487b7100000000000000000000000000000000000000000000000000000000600052603260045260246000fd5b60008219821115613e9557613e95613cb3565b500190565b60007fffffffffffffffffffffffffffffffffffffffffffffffffffffffffffffffff8203613ecb57613ecb613cb3565b5060010190565b60005b83811015613eed578181015183820152602001613ed5565b83811115612d4e5750506000910152565b60008151808452613f16816020860160208601613ed2565b601f01601f19169290920160200192915050565b606081526000613f3d6060830186613efe565b60208301949094525060400152919050565b600060408284031215613f6157600080fd5b6040516040810181811067ffffffffffffffff82111715613f8457613f84613854565b604052825181526020928301519281019290925250919050565b60008083357fffffffffffffffffffffffffffffffffffffffffffffffffffffffffffffffe1843603018112613fd357600080fd5b83018035915067ffffffffffffffff821115613fee57600080fd5b6020019150368190038213156136ba57600080fd5b6000808585111561401357600080fd5b8386111561402057600080fd5b5050820193919092039150565b80356020831015610814577fffffffffffffffffffffffffffffffffffffffffffffffffffffffffffffffff602084900360031b1b1692915050565b60006020828403121561407b57600080fd5b815167ffffffffffffffff81111561409257600080fd5b8201601f810184136140a357600080fd5b80516140b16138fb826138b4565b8181528560208385010111156140c657600080fd5b6122a7826020830160208601613ed2565b600083516140e9818460208801613ed2565b7f2e000000000000000000000000000000000000000000000000000000000000009083019081528351614123816001840160208801613ed2565b01600101949350505050565b60006001600160a01b0380871683528086166020840152808516604084015250608060608301526141636080830184613efe565b9695505050505050565b7f416363657373436f6e74726f6c3a206163636f756e74200000000000000000008152600083516141a5816017850160208801613ed2565b7f206973206d697373696e6720726f6c652000000000000000000000000000000060179184019182015283516141e2816028840160208801613ed2565b01602801949350505050565b6020815260006113086020830184613efe565b6000817fffffffffffffffffffffffffffffffffffffffffffffffffffffffffffffffff048311821515161561423957614239613cb3565b500290565b60008161424d5761424d613cb3565b507fffffffffffffffffffffffffffffffffffffffffffffffffffffffffffffffff0190565b60008251614285818460208701613ed2565b9190910192915050565b7f4e487b7100000000000000000000000000000000000000000000000000000000600052603160045260246000fdfe526567697374726172436f6e74726f6c6c65723a204661696c656420746f20736574205265636f7264a264697066735822122008986d77dfe9a2acdacad6eb131bd2e736fe64b5edc3d2ea497c3216053afb1e64736f6c634300080d0033",
  "linkReferences": {},
  "deployedLinkReferences": {}
}