{
  "_format": "hh-sol-artifact-1",
  "contractName": "RegistrarController",
  "sourceName": "contracts/registrars/RegistrarController.sol",
  "abi": [
    {
      "inputs": [
        {
          "internalType": "uint256",
          "name": "_minCommitmentAge",
          "type": "uint256"
        },
        {
          "internalType": "uint256",
          "name": "_maxCommitmentAge",
          "type": "uint256"
        },
        {
          "internalType": "contract IPriceOracle",
          "name": "_prices",
          "type": "address"
        },
        {
          "internalType": "contract IRegistry",
          "name": "_registry",
          "type": "address"
        },
        {
          "internalType": "contract IRegistrar",
          "name": "_baseRegistrar",
          "type": "address"
        },
        {
          "internalType": "contract IReverseRegistrar",
          "name": "_reverseRegistrar",
          "type": "address"
        }
      ],
      "stateMutability": "nonpayable",
      "type": "constructor"
    },
    {
      "anonymous": false,
      "inputs": [
        {
          "indexed": false,
          "internalType": "string",
          "name": "name",
          "type": "string"
        },
        {
          "indexed": true,
          "internalType": "bytes32",
          "name": "label",
          "type": "bytes32"
        },
        {
          "indexed": true,
          "internalType": "address",
          "name": "owner",
          "type": "address"
        },
        {
          "indexed": true,
          "internalType": "address",
          "name": "registrar",
          "type": "address"
        },
        {
          "indexed": false,
          "internalType": "uint256",
          "name": "baseCost",
          "type": "uint256"
        },
        {
          "indexed": false,
          "internalType": "uint256",
          "name": "premium",
          "type": "uint256"
        },
        {
          "indexed": false,
          "internalType": "uint256",
          "name": "expires",
          "type": "uint256"
        }
      ],
      "name": "NameRegistered",
      "type": "event"
    },
    {
      "anonymous": false,
      "inputs": [
        {
          "indexed": false,
          "internalType": "string",
          "name": "name",
          "type": "string"
        },
        {
          "indexed": true,
          "internalType": "bytes32",
          "name": "label",
          "type": "bytes32"
        },
        {
          "indexed": true,
          "internalType": "address",
          "name": "registrar",
          "type": "address"
        },
        {
          "indexed": false,
          "internalType": "uint256",
          "name": "cost",
          "type": "uint256"
        },
        {
          "indexed": false,
          "internalType": "uint256",
          "name": "expires",
          "type": "uint256"
        }
      ],
      "name": "NameRenewed",
      "type": "event"
    },
    {
      "anonymous": false,
      "inputs": [
        {
          "indexed": true,
          "internalType": "address",
          "name": "previousOwner",
          "type": "address"
        },
        {
          "indexed": true,
          "internalType": "address",
          "name": "newOwner",
          "type": "address"
        }
      ],
      "name": "OwnershipTransferred",
      "type": "event"
    },
    {
      "anonymous": false,
      "inputs": [
        {
          "indexed": true,
          "internalType": "address",
          "name": "token",
          "type": "address"
        },
        {
          "indexed": false,
          "internalType": "bool",
          "name": "enabled",
          "type": "bool"
        }
      ],
      "name": "PaymentChanged",
      "type": "event"
    },
    {
      "anonymous": false,
      "inputs": [
        {
          "indexed": true,
          "internalType": "address",
          "name": "registrar",
          "type": "address"
        },
        {
          "indexed": true,
          "internalType": "bytes32",
          "name": "label",
          "type": "bytes32"
        }
      ],
      "name": "RegistrarAdded",
      "type": "event"
    },
    {
      "anonymous": false,
      "inputs": [
        {
          "indexed": true,
          "internalType": "address",
          "name": "registrar",
          "type": "address"
        },
        {
          "indexed": true,
          "internalType": "bytes32",
          "name": "label",
          "type": "bytes32"
        }
      ],
      "name": "RegistrarRemoved",
      "type": "event"
    },
    {
      "inputs": [],
      "name": "MIN_REGISTRATION_DURATION",
      "outputs": [
        {
          "internalType": "uint256",
          "name": "",
          "type": "uint256"
        }
      ],
      "stateMutability": "view",
      "type": "function"
    },
    {
      "inputs": [
        {
          "internalType": "address",
          "name": "_registrar",
          "type": "address"
        }
      ],
      "name": "addRegistrar",
      "outputs": [],
      "stateMutability": "nonpayable",
      "type": "function"
    },
    {
      "inputs": [
        {
          "internalType": "string",
          "name": "name",
          "type": "string"
        },
        {
          "internalType": "bytes32",
          "name": "node",
          "type": "bytes32"
        }
      ],
      "name": "available",
      "outputs": [
        {
          "internalType": "bool",
          "name": "",
          "type": "bool"
        }
      ],
      "stateMutability": "view",
      "type": "function"
    },
    {
      "inputs": [
        {
          "internalType": "bytes32",
          "name": "commitment",
          "type": "bytes32"
        }
      ],
      "name": "commit",
      "outputs": [],
      "stateMutability": "nonpayable",
      "type": "function"
    },
    {
      "inputs": [
        {
          "internalType": "bytes32",
          "name": "",
          "type": "bytes32"
        }
      ],
      "name": "commitments",
      "outputs": [
        {
          "internalType": "uint256",
          "name": "",
          "type": "uint256"
        }
      ],
      "stateMutability": "view",
      "type": "function"
    },
    {
      "inputs": [
        {
          "internalType": "string",
          "name": "name",
          "type": "string"
        },
        {
          "internalType": "address",
          "name": "owner",
          "type": "address"
        },
        {
          "internalType": "uint256",
          "name": "duration",
          "type": "uint256"
        },
        {
          "internalType": "bytes32",
          "name": "secret",
          "type": "bytes32"
        },
        {
          "internalType": "address",
          "name": "resolver",
          "type": "address"
        },
        {
          "internalType": "bytes[]",
          "name": "data",
          "type": "bytes[]"
        },
        {
          "internalType": "bool",
          "name": "reverseRecord",
          "type": "bool"
        }
      ],
      "name": "makeCommitment",
      "outputs": [
        {
          "internalType": "bytes32",
          "name": "",
          "type": "bytes32"
        }
      ],
      "stateMutability": "pure",
      "type": "function"
    },
    {
      "inputs": [],
      "name": "maxCommitmentAge",
      "outputs": [
        {
          "internalType": "uint256",
          "name": "",
          "type": "uint256"
        }
      ],
      "stateMutability": "view",
      "type": "function"
    },
    {
      "inputs": [],
      "name": "minCommitmentAge",
      "outputs": [
        {
          "internalType": "uint256",
          "name": "",
          "type": "uint256"
        }
      ],
      "stateMutability": "view",
      "type": "function"
    },
    {
      "inputs": [],
      "name": "owner",
      "outputs": [
        {
          "internalType": "address",
          "name": "",
          "type": "address"
        }
      ],
      "stateMutability": "view",
      "type": "function"
    },
    {
      "inputs": [
        {
          "internalType": "address",
          "name": "",
          "type": "address"
        }
      ],
      "name": "paymentTokens",
      "outputs": [
        {
          "internalType": "bool",
          "name": "",
          "type": "bool"
        }
      ],
      "stateMutability": "view",
      "type": "function"
    },
    {
      "inputs": [],
      "name": "prices",
      "outputs": [
        {
          "internalType": "contract IPriceOracle",
          "name": "",
          "type": "address"
        }
      ],
      "stateMutability": "view",
      "type": "function"
    },
    {
      "inputs": [
        {
          "internalType": "string",
          "name": "name",
          "type": "string"
        },
        {
          "internalType": "address",
          "name": "owner",
          "type": "address"
        },
        {
          "internalType": "uint256",
          "name": "duration",
          "type": "uint256"
        },
        {
          "internalType": "bytes32",
          "name": "secret",
          "type": "bytes32"
        },
        {
          "internalType": "address",
          "name": "resolver",
          "type": "address"
        },
        {
          "internalType": "bytes[]",
          "name": "data",
          "type": "bytes[]"
        },
        {
          "internalType": "bool",
          "name": "reverseRecord",
          "type": "bool"
        },
        {
          "internalType": "bytes32",
          "name": "node",
          "type": "bytes32"
        }
      ],
      "name": "register",
      "outputs": [],
      "stateMutability": "payable",
      "type": "function"
    },
    {
      "inputs": [
        {
          "internalType": "bytes32",
          "name": "",
          "type": "bytes32"
        }
      ],
      "name": "registrars",
      "outputs": [
        {
          "internalType": "contract IRegistrar",
          "name": "",
          "type": "address"
        }
      ],
      "stateMutability": "view",
      "type": "function"
    },
    {
      "inputs": [],
      "name": "registry",
      "outputs": [
        {
          "internalType": "contract IRegistry",
          "name": "",
          "type": "address"
        }
      ],
      "stateMutability": "view",
      "type": "function"
    },
    {
      "inputs": [
        {
          "internalType": "address",
          "name": "_registrar",
          "type": "address"
        }
      ],
      "name": "removeRegistrar",
      "outputs": [],
      "stateMutability": "nonpayable",
      "type": "function"
    },
    {
      "inputs": [
        {
          "internalType": "string",
          "name": "name",
          "type": "string"
        },
        {
          "internalType": "uint256",
          "name": "duration",
          "type": "uint256"
        },
        {
          "internalType": "bytes32",
          "name": "node",
          "type": "bytes32"
        }
      ],
      "name": "renew",
      "outputs": [],
      "stateMutability": "payable",
      "type": "function"
    },
    {
      "inputs": [],
      "name": "renounceOwnership",
      "outputs": [],
      "stateMutability": "nonpayable",
      "type": "function"
    },
    {
      "inputs": [
        {
          "internalType": "string",
          "name": "name",
          "type": "string"
        },
        {
          "internalType": "uint256",
          "name": "duration",
          "type": "uint256"
        },
        {
          "internalType": "bytes32",
          "name": "node",
          "type": "bytes32"
        }
      ],
      "name": "rentPrice",
      "outputs": [
        {
          "components": [
            {
              "internalType": "uint256",
              "name": "base",
              "type": "uint256"
            },
            {
              "internalType": "uint256",
              "name": "premium",
              "type": "uint256"
            }
          ],
          "internalType": "struct IPriceOracle.Price",
          "name": "price",
          "type": "tuple"
        }
      ],
      "stateMutability": "view",
      "type": "function"
    },
    {
      "inputs": [],
      "name": "reverseRegistrar",
      "outputs": [
        {
          "internalType": "contract IReverseRegistrar",
          "name": "",
          "type": "address"
        }
      ],
      "stateMutability": "view",
      "type": "function"
    },
    {
      "inputs": [
        {
          "internalType": "address",
          "name": "token",
          "type": "address"
        },
        {
          "internalType": "bool",
          "name": "enabled",
          "type": "bool"
        }
      ],
      "name": "setPaymentToken",
      "outputs": [],
      "stateMutability": "nonpayable",
      "type": "function"
    },
    {
      "inputs": [
        {
          "internalType": "bytes4",
          "name": "interfaceID",
          "type": "bytes4"
        }
      ],
      "name": "supportsInterface",
      "outputs": [
        {
          "internalType": "bool",
          "name": "",
          "type": "bool"
        }
      ],
      "stateMutability": "pure",
      "type": "function"
    },
    {
      "inputs": [
        {
          "internalType": "address",
          "name": "newOwner",
          "type": "address"
        }
      ],
      "name": "transferOwnership",
      "outputs": [],
      "stateMutability": "nonpayable",
      "type": "function"
    },
    {
      "inputs": [
        {
          "internalType": "string",
          "name": "name",
          "type": "string"
        }
      ],
      "name": "valid",
      "outputs": [
        {
          "internalType": "bool",
          "name": "",
          "type": "bool"
        }
      ],
      "stateMutability": "pure",
      "type": "function"
    },
    {
      "inputs": [],
      "name": "withdraw",
      "outputs": [],
      "stateMutability": "nonpayable",
      "type": "function"
    }
  ],
  "bytecode": "0x6101206040523480156200001257600080fd5b50604051620033da380380620033da83398101604081905262000035916200017d565b620000403362000114565b8585116200004d57600080fd5b608086905260a08590526001600160a01b0380851660c05283811660e05260408051630ddf7fcb60e41b8152905184926001926000929185169163ddf7fcb0916004808201926020929091908290030181865afa158015620000b3573d6000803e3d6000fd5b505050506040513d601f19601f82011682018060405250810190620000d99190620001f9565b8152602081019190915260400160002080546001600160a01b0319166001600160a01b03928316179055166101005250620002139350505050565b600080546001600160a01b038381166001600160a01b0319831681178455604051919092169283917f8be0079c531659141344cd1fd0a4f28419497f9722a3daafe3b4186f6b6457e09190a35050565b6001600160a01b03811681146200017a57600080fd5b50565b60008060008060008060c087890312156200019757600080fd5b86519550602087015194506040870151620001b28162000164565b6060880151909450620001c58162000164565b6080880151909350620001d88162000164565b60a0880151909250620001eb8162000164565b809150509295509295509295565b6000602082840312156200020c57600080fd5b5051919050565b60805160a05160c05160e0516101005161315862000282600039600081816102dd015261237101526000818161028401526115e90152600081816104bb0152611a0d01526000818161048701528181611b040152611f8a0152600081816103980152611eda01526131586000f3fe60806040526004361061018b5760003560e01c80638d839ffe116100d6578063ce1e09c01161007f578063d9e39df111610059578063d9e39df1146104f0578063f14fcbc81461052b578063f2fde38b1461054b57600080fd5b8063ce1e09c014610475578063d3419bf3146104a9578063d74d2419146104dd57600080fd5b8063af92a693116100b0578063af92a69314610405578063ba904eed14610425578063c3b88b421461044557600080fd5b80638d839ffe146103865780638da5cb5b146103ba5780639791c097146103e557600080fd5b8063715018a611610138578063839df94511610112578063839df945146102ff5780638a95b09f1461032c5780638ad18bb61461034357600080fd5b8063715018a61461025d5780637b1039991461027257806380869853146102cb57600080fd5b80633ccfd60b116101695780633ccfd60b146101fa5780633d4aa89e1461020f578063430884cf1461023d57600080fd5b806301ffc9a71461019057806318026ad1146101c55780632595eacb146101da575b600080fd5b34801561019c57600080fd5b506101b06101ab366004612630565b61056b565b60405190151581526020015b60405180910390f35b6101d86101d33660046126bb565b610604565b005b3480156101e657600080fd5b506101b06101f53660046127ea565b610846565b34801561020657600080fd5b506101d8610908565b34801561021b57600080fd5b5061022f61022a3660046128ab565b610952565b6040519081526020016101bc565b34801561024957600080fd5b506101d861025836600461295d565b610a2f565b34801561026957600080fd5b506101d8610ac1565b34801561027e57600080fd5b506102a67f000000000000000000000000000000000000000000000000000000000000000081565b60405173ffffffffffffffffffffffffffffffffffffffff90911681526020016101bc565b3480156102d757600080fd5b506102a67f000000000000000000000000000000000000000000000000000000000000000081565b34801561030b57600080fd5b5061022f61031a366004612994565b60026020526000908152604090205481565b34801561033857600080fd5b5061022f6224ea0081565b34801561034f57600080fd5b506102a661035e366004612994565b60016020526000908152604090205473ffffffffffffffffffffffffffffffffffffffff1681565b34801561039257600080fd5b5061022f7f000000000000000000000000000000000000000000000000000000000000000081565b3480156103c657600080fd5b5060005473ffffffffffffffffffffffffffffffffffffffff166102a6565b3480156103f157600080fd5b506101b06104003660046129ad565b610ad5565b34801561041157600080fd5b506101d86104203660046129e2565b610e8a565b34801561043157600080fd5b506101d86104403660046129e2565b61100b565b34801561045157600080fd5b506101b06104603660046129e2565b60036020526000908152604090205460ff1681565b34801561048157600080fd5b5061022f7f000000000000000000000000000000000000000000000000000000000000000081565b3480156104b557600080fd5b506102a67f000000000000000000000000000000000000000000000000000000000000000081565b6101d86104eb3660046129fd565b61126e565b3480156104fc57600080fd5b5061051061050b366004612ac2565b61199d565b604080518251815260209283015192810192909252016101bc565b34801561053757600080fd5b506101d8610546366004612994565b611aed565b34801561055757600080fd5b506101d86105663660046129e2565b611b46565b60007fffffffff0000000000000000000000000000000000000000000000000000000082167f01ffc9a70000000000000000000000000000000000000000000000000000000014806105fe57507fffffffff0000000000000000000000000000000000000000000000000000000082167fff3c5aa400000000000000000000000000000000000000000000000000000000145b92915050565b60008484604051610616929190612b10565b60405180910390209050600061066586868080601f01602080910402602001604051908101604052809392919081815260200183838082843760009201919091525088925087915061199d9050565b80519091503410156106e45760405162461bcd60e51b815260206004820152603a60248201527f526567697374726172436f6e74726f6c6c65723a204e6f7420656e6f7567682060448201527f45746865722070726f766964656420666f722072656e6577616c00000000000060648201526084015b60405180910390fd5b6000838152600160205260408082205490517fc475abff000000000000000000000000000000000000000000000000000000008152600481018590526024810187905273ffffffffffffffffffffffffffffffffffffffff9091169063c475abff906044016020604051808303816000875af1158015610768573d6000803e3d6000fd5b505050506040513d601f19601f8201168201806040525081019061078c9190612b20565b82519091503411156107d457815133906108fc906107aa9034612b68565b6040518115909202916000818181858888f193505050501580156107d2573d6000803e3d6000fd5b505b6000848152600160205260409081902054905173ffffffffffffffffffffffffffffffffffffffff9091169084907f42ad0fb3f431843882fafa6483115d093f86443f4952c2c75bd298aa3e8531de90610835908b908b9034908890612baa565b60405180910390a350505050505050565b8151602083012060009061085984610ad5565b80156109005750600083815260016020526040908190205490517f96e494e80000000000000000000000000000000000000000000000000000000081526004810183905273ffffffffffffffffffffffffffffffffffffffff909116906396e494e890602401602060405180830381865afa1580156108dc573d6000803e3d6000fd5b505050506040513d601f19601f820116820180604052508101906109009190612bd1565b949350505050565b6000805460405173ffffffffffffffffffffffffffffffffffffffff909116914780156108fc02929091818181858888f1935050505015801561094f573d6000803e3d6000fd5b50565b8751602089012060009083156109eb5773ffffffffffffffffffffffffffffffffffffffff86166109eb5760405162461bcd60e51b815260206004820152603f60248201527f526567697374726172436f6e74726f6c6c65723a207265736f6c76657220697360448201527f207265717569726564207768656e206461746120697320737570706c6965640060648201526084016106db565b8089898888888c89604051602001610a0a989796959493929190612bee565b6040516020818303038152906040528051906020012091505098975050505050505050565b610a37611be0565b73ffffffffffffffffffffffffffffffffffffffff821660008181526003602090815260409182902080547fffffffffffffffffffffffffffffffffffffffffffffffffffffffffffffff001685151590811790915591519182527fcb677abd2e196093ad6dffbb2bb74762789d3d09d4af32df883297275e437fbf910160405180910390a25050565b610ac9611be0565b610ad36000611c47565b565b60006003610ae283611cbc565b1015610af057506000919050565b8160005b60028251610b029190612b68565b811015610e8057818181518110610b1b57610b1b612d11565b6020910101517fff00000000000000000000000000000000000000000000000000000000000000167fe200000000000000000000000000000000000000000000000000000000000000148015610bd3575081610b78826001612d40565b81518110610b8857610b88612d11565b6020910101517fff00000000000000000000000000000000000000000000000000000000000000167f8000000000000000000000000000000000000000000000000000000000000000145b15610d2c5781610be4826002612d40565b81518110610bf457610bf4612d11565b6020910101517fff00000000000000000000000000000000000000000000000000000000000000167f8b000000000000000000000000000000000000000000000000000000000000001480610cab575081610c50826002612d40565b81518110610c6057610c60612d11565b6020910101517fff00000000000000000000000000000000000000000000000000000000000000167f8c00000000000000000000000000000000000000000000000000000000000000145b80610d18575081610cbd826002612d40565b81518110610ccd57610ccd612d11565b6020910101517fff00000000000000000000000000000000000000000000000000000000000000167f8d00000000000000000000000000000000000000000000000000000000000000145b15610d27575060009392505050565b610e6e565b818181518110610d3e57610d3e612d11565b01602001517fff00000000000000000000000000000000000000000000000000000000000000167fef0000000000000000000000000000000000000000000000000000000000000003610e6e5781610d97826001612d40565b81518110610da757610da7612d11565b6020910101517fff00000000000000000000000000000000000000000000000000000000000000167fbb00000000000000000000000000000000000000000000000000000000000000148015610e5f575081610e04826002612d40565b81518110610e1457610e14612d11565b6020910101517fff00000000000000000000000000000000000000000000000000000000000000167fbf00000000000000000000000000000000000000000000000000000000000000145b15610e6e575060009392505050565b80610e7881612d58565b915050610af4565b5060019392505050565b610e92611be0565b600081905080600160008373ffffffffffffffffffffffffffffffffffffffff1663ddf7fcb06040518163ffffffff1660e01b8152600401602060405180830381865afa158015610ee7573d6000803e3d6000fd5b505050506040513d601f19601f82011682018060405250810190610f0b9190612b20565b815260200190815260200160002060006101000a81548173ffffffffffffffffffffffffffffffffffffffff021916908373ffffffffffffffffffffffffffffffffffffffff1602179055508073ffffffffffffffffffffffffffffffffffffffff1663ddf7fcb06040518163ffffffff1660e01b8152600401602060405180830381865afa158015610fa2573d6000803e3d6000fd5b505050506040513d601f19601f82011682018060405250810190610fc69190612b20565b60405173ffffffffffffffffffffffffffffffffffffffff8416907f680e63bdfc3677811bd920d48519024d41ed4633bfb696815874997a5a6d842990600090a35050565b611013611be0565b60008190508073ffffffffffffffffffffffffffffffffffffffff16600160008373ffffffffffffffffffffffffffffffffffffffff1663ddf7fcb06040518163ffffffff1660e01b8152600401602060405180830381865afa15801561107e573d6000803e3d6000fd5b505050506040513d601f19601f820116820180604052508101906110a29190612b20565b815260208101919091526040016000205473ffffffffffffffffffffffffffffffffffffffff16146111165760405162461bcd60e51b815260206004820152601160248201527f696e76616c69642072656769737472617200000000000000000000000000000060448201526064016106db565b600160008273ffffffffffffffffffffffffffffffffffffffff1663ddf7fcb06040518163ffffffff1660e01b8152600401602060405180830381865afa158015611165573d6000803e3d6000fd5b505050506040513d601f19601f820116820180604052508101906111899190612b20565b815260200190815260200160002060006101000a81549073ffffffffffffffffffffffffffffffffffffffff02191690558073ffffffffffffffffffffffffffffffffffffffff1663ddf7fcb06040518163ffffffff1660e01b8152600401602060405180830381865afa158015611205573d6000803e3d6000fd5b505050506040513d601f19601f820116820180604052508101906112299190612b20565b60405173ffffffffffffffffffffffffffffffffffffffff8416907f8801042638f34d6ae18af8b595824fdbfcf013678221a6b85dddfb9adbd4e67590600090a35050565b60006112b38b8b8080601f0160208091040260200160405190810160405280939291908181526020018383808284376000920191909152508c925086915061199d9050565b602081015181519192506112c691612d40565b34101561133b5760405162461bcd60e51b815260206004820152602e60248201527f526567697374726172436f6e74726f6c6c65723a204e6f7420656e6f7567682060448201527f65746865722070726f766964656400000000000000000000000000000000000060648201526084016106db565b6113de8b8b8080601f016020809104026020016040519081016040528093929190818152602001838380828437600081840152601f19601f82011690508083019250505050505050896113d88e8e8080601f016020809104026020016040519081016040528093929190818152602001838380828437600081840152601f19601f820116905080830192505050505050508d8d8d8d8d8d8d610952565b85611ec3565b600073ffffffffffffffffffffffffffffffffffffffff8716156117845760006001600085815260200190815260200160002060009054906101000a900473ffffffffffffffffffffffffffffffffffffffff1673ffffffffffffffffffffffffffffffffffffffff1663d393c8718e8e308e6040518563ffffffff1660e01b81526004016114709493929190612d90565b60408051808303816000875af115801561148e573d6000803e3d6000fd5b505050506040513d601f19601f820116820180604052508101906114b29190612dcd565b60008681526001602090815260408083205481517fddf7fcb00000000000000000000000000000000000000000000000000000000081529151949750949550919373ffffffffffffffffffffffffffffffffffffffff169263ddf7fcb09260048082019392918290030181865afa158015611531573d6000803e3d6000fd5b505050506040513d601f19601f820116820180604052508101906115559190612b20565b8e8e604051611565929190612b10565b6040519081900381206115849291602001918252602082015260400190565b60408051808303601f190181529082905280516020909101207f1896f70a0000000000000000000000000000000000000000000000000000000082526004820181905273ffffffffffffffffffffffffffffffffffffffff8b811660248401529092507f00000000000000000000000000000000000000000000000000000000000000001690631896f70a90604401600060405180830381600087803b15801561162d57600080fd5b505af1158015611641573d6000803e3d6000fd5b505050600086815260016020526040908190205490517f28ed4f6c0000000000000000000000000000000000000000000000000000000081526004810185905273ffffffffffffffffffffffffffffffffffffffff8f8116602483015290911691506328ed4f6c90604401600060405180830381600087803b1580156116c657600080fd5b505af11580156116da573d6000803e3d6000fd5b505050600086815260016020526040908190205490517f23b872dd00000000000000000000000000000000000000000000000000000000815230600482015273ffffffffffffffffffffffffffffffffffffffff8f811660248301526044820186905290911691506323b872dd90606401600060405180830381600087803b15801561176557600080fd5b505af1158015611779573d6000803e3d6000fd5b505050505050611833565b600083815260016020526040908190205490517fd393c87100000000000000000000000000000000000000000000000000000000815273ffffffffffffffffffffffffffffffffffffffff9091169063d393c871906117ed908f908f908f908f90600401612d90565b60408051808303816000875af115801561180b573d6000803e3d6000fd5b505050506040513d601f19601f8201168201806040525081019061182f9190612dcd565b9150505b611857878d8d604051611847929190612b10565b60405180910390208888876120c3565b83156118a1576118a18c8c8080601f0160208091040260200160405190810160405280939291908181526020018383808284376000920191909152508b9250339150879050612323565b6000838152600160205260409081902054905173ffffffffffffffffffffffffffffffffffffffff918216918c16906118dd908f908f90612b10565b60405180910390207f17c5fb3bf95cf3080f82cf190f4b5d08f5bbe7b0df41917e90d0d9d825ce9aea8f8f8760000151886020015188604051611924959493929190612df1565b60405180910390a46020820151825161193d9190612d40565b34111561198f576020820151825133916108fc9161195b9190612d40565b6119659034612b68565b6040518115909202916000818181858888f1935050505015801561198d573d6000803e3d6000fd5b505b505050505050505050505050565b604080518082018252600080825260208083018290528651878201208583526001909152908390205492517fd6e4fa86000000000000000000000000000000000000000000000000000000008152600481018290529192909173ffffffffffffffffffffffffffffffffffffffff7f00000000000000000000000000000000000000000000000000000000000000008116926350e9a7159289929091169063d6e4fa8690602401602060405180830381865afa158015611a61573d6000803e3d6000fd5b505050506040513d601f19601f82011682018060405250810190611a859190612b20565b876040518463ffffffff1660e01b8152600401611aa493929190612e7a565b6040805180830381865afa158015611ac0573d6000803e3d6000fd5b505050506040513d601f19601f82011682018060405250810190611ae49190612e9f565b95945050505050565b6000818152600260205260409020544290611b29907f000000000000000000000000000000000000000000000000000000000000000090612d40565b10611b3357600080fd5b6000908152600260205260409020429055565b611b4e611be0565b73ffffffffffffffffffffffffffffffffffffffff8116611bd75760405162461bcd60e51b815260206004820152602660248201527f4f776e61626c653a206e6577206f776e657220697320746865207a65726f206160448201527f646472657373000000000000000000000000000000000000000000000000000060648201526084016106db565b61094f81611c47565b60005473ffffffffffffffffffffffffffffffffffffffff163314610ad35760405162461bcd60e51b815260206004820181905260248201527f4f776e61626c653a2063616c6c6572206973206e6f7420746865206f776e657260448201526064016106db565b6000805473ffffffffffffffffffffffffffffffffffffffff8381167fffffffffffffffffffffffff0000000000000000000000000000000000000000831681178455604051919092169283917f8be0079c531659141344cd1fd0a4f28419497f9722a3daafe3b4186f6b6457e09190a35050565b8051600090819081905b80821015611eba576000858381518110611ce257611ce2612d11565b01602001517fff000000000000000000000000000000000000000000000000000000000000001690507f8000000000000000000000000000000000000000000000000000000000000000811015611d4557611d3e600184612d40565b9250611ea7565b7fe0000000000000000000000000000000000000000000000000000000000000007fff0000000000000000000000000000000000000000000000000000000000000082161015611d9a57611d3e600284612d40565b7ff0000000000000000000000000000000000000000000000000000000000000007fff0000000000000000000000000000000000000000000000000000000000000082161015611def57611d3e600384612d40565b7ff8000000000000000000000000000000000000000000000000000000000000007fff0000000000000000000000000000000000000000000000000000000000000082161015611e4457611d3e600484612d40565b7ffc000000000000000000000000000000000000000000000000000000000000007fff0000000000000000000000000000000000000000000000000000000000000082161015611e9957611d3e600584612d40565b611ea4600684612d40565b92505b5082611eb281612d58565b935050611cc6565b50909392505050565b6000828152600260205260409020544290611eff907f000000000000000000000000000000000000000000000000000000000000000090612d40565b1115611f735760405162461bcd60e51b815260206004820152602c60248201527f526567697374726172436f6e74726f6c6c65723a20436f6d6d69746d656e742060448201527f6973206e6f742076616c6964000000000000000000000000000000000000000060648201526084016106db565b6000828152600260205260409020544290611faf907f000000000000000000000000000000000000000000000000000000000000000090612d40565b116120225760405162461bcd60e51b815260206004820152602b60248201527f526567697374726172436f6e74726f6c6c65723a20436f6d6d69746d656e742060448201527f686173206578706972656400000000000000000000000000000000000000000060648201526084016106db565b61202c8482610846565b61209e5760405162461bcd60e51b815260206004820152602860248201527f526567697374726172436f6e74726f6c6c65723a204e616d6520697320756e6160448201527f7661696c61626c6500000000000000000000000000000000000000000000000060648201526084016106db565b6000828152600260205260408120556224ea008310156120bd57600080fd5b50505050565b60008181526001602090815260408083205481517fddf7fcb0000000000000000000000000000000000000000000000000000000008152915173ffffffffffffffffffffffffffffffffffffffff9091169263ddf7fcb092600480820193918290030181865afa15801561213b573d6000803e3d6000fd5b505050506040513d601f19601f8201168201806040525081019061215f9190612b20565b604080516020810192909252810186905260600160405160208183030381529060405280519060200120905060005b8381101561231a5760008585838181106121aa576121aa612d11565b90506020028101906121bc9190612eee565b6121cb91602491600491612f53565b6121d491612f7d565b90508281146122715760405162461bcd60e51b815260206004820152604e60248201527f526567697374726172436f6e74726f6c6c65723a204e616d6568617368206f6e60448201527f207265636f726420646f206e6f74206d6174636820746865206e616d6520626560648201527f696e672072656769737465726564000000000000000000000000000000000000608482015260a4016106db565b61230586868481811061228657612286612d11565b90506020028101906122989190612eee565b8080601f016020809104026020016040519081016040528093929190818152602001838380828437600092019190915250506040805160608101909152602980825290925090506130fa602083013973ffffffffffffffffffffffffffffffffffffffff8b16919061247c565b5050808061231290612d58565b91505061218e565b50505050505050565b6000818152600160205260408082205481517f2d551432000000000000000000000000000000000000000000000000000000008152915173ffffffffffffffffffffffffffffffffffffffff7f0000000000000000000000000000000000000000000000000000000000000000811694637a806d6b94339489948b948d94921692632d5514329260048083019391928290030181865afa1580156123cb573d6000803e3d6000fd5b505050506040513d6000823e601f3d908101601f191682016040526123f39190810190612fb9565b604051602001612404929190613027565b6040516020818303038152906040526040518563ffffffff1660e01b8152600401612432949392919061307f565b6020604051808303816000875af1158015612451573d6000803e3d6000fd5b505050506040513d601f19601f820116820180604052508101906124759190612b20565b5050505050565b606061248b8484600085612495565b90505b9392505050565b60608247101561250d5760405162461bcd60e51b815260206004820152602660248201527f416464726573733a20696e73756666696369656e742062616c616e636520666f60448201527f722063616c6c000000000000000000000000000000000000000000000000000060648201526084016106db565b73ffffffffffffffffffffffffffffffffffffffff85163b6125715760405162461bcd60e51b815260206004820152601d60248201527f416464726573733a2063616c6c20746f206e6f6e2d636f6e747261637400000060448201526064016106db565b6000808673ffffffffffffffffffffffffffffffffffffffff16858760405161259a91906130ca565b60006040518083038185875af1925050503d80600081146125d7576040519150601f19603f3d011682016040523d82523d6000602084013e6125dc565b606091505b50915091506125ec8282866125f7565b979650505050505050565b6060831561260657508161248e565b8251156126165782518084602001fd5b8160405162461bcd60e51b81526004016106db91906130e6565b60006020828403121561264257600080fd5b81357fffffffff000000000000000000000000000000000000000000000000000000008116811461248e57600080fd5b60008083601f84011261268457600080fd5b50813567ffffffffffffffff81111561269c57600080fd5b6020830191508360208285010111156126b457600080fd5b9250929050565b600080600080606085870312156126d157600080fd5b843567ffffffffffffffff8111156126e857600080fd5b6126f487828801612672565b90989097506020870135966040013595509350505050565b7f4e487b7100000000000000000000000000000000000000000000000000000000600052604160045260246000fd5b604051601f8201601f1916810167ffffffffffffffff811182821017156127645761276461270c565b604052919050565b600067ffffffffffffffff8211156127865761278661270c565b50601f01601f191660200190565b600082601f8301126127a557600080fd5b81356127b86127b38261276c565b61273b565b8181528460208386010111156127cd57600080fd5b816020850160208301376000918101602001919091529392505050565b600080604083850312156127fd57600080fd5b823567ffffffffffffffff81111561281457600080fd5b61282085828601612794565b95602094909401359450505050565b803573ffffffffffffffffffffffffffffffffffffffff8116811461285357600080fd5b919050565b60008083601f84011261286a57600080fd5b50813567ffffffffffffffff81111561288257600080fd5b6020830191508360208260051b85010111156126b457600080fd5b801515811461094f57600080fd5b60008060008060008060008060e0898b0312156128c757600080fd5b883567ffffffffffffffff808211156128df57600080fd5b6128eb8c838d01612794565b99506128f960208c0161282f565b985060408b0135975060608b0135965061291560808c0161282f565b955060a08b013591508082111561292b57600080fd5b506129388b828c01612858565b90945092505060c089013561294c8161289d565b809150509295985092959890939650565b6000806040838503121561297057600080fd5b6129798361282f565b915060208301356129898161289d565b809150509250929050565b6000602082840312156129a657600080fd5b5035919050565b6000602082840312156129bf57600080fd5b813567ffffffffffffffff8111156129d657600080fd5b61090084828501612794565b6000602082840312156129f457600080fd5b61248e8261282f565b6000806000806000806000806000806101008b8d031215612a1d57600080fd5b8a3567ffffffffffffffff80821115612a3557600080fd5b612a418e838f01612672565b909c509a508a9150612a5560208e0161282f565b995060408d0135985060608d01359750612a7160808e0161282f565b965060a08d0135915080821115612a8757600080fd5b50612a948d828e01612858565b90955093505060c08b0135612aa88161289d565b8092505060e08b013590509295989b9194979a5092959850565b600080600060608486031215612ad757600080fd5b833567ffffffffffffffff811115612aee57600080fd5b612afa86828701612794565b9660208601359650604090950135949350505050565b8183823760009101908152919050565b600060208284031215612b3257600080fd5b5051919050565b7f4e487b7100000000000000000000000000000000000000000000000000000000600052601160045260246000fd5b600082821015612b7a57612b7a612b39565b500390565b818352818160208501375060006020828401015260006020601f19601f840116840101905092915050565b606081526000612bbe606083018688612b7f565b6020830194909452506040015292915050565b600060208284031215612be357600080fd5b815161248e8161289d565b600060e082018a8352602073ffffffffffffffffffffffffffffffffffffffff808c16828601528a6040860152808a1660608601525060e060808501528187835261010092508285019050828860051b86010192508860005b89811015612cf1577fffffffffffffffffffffffffffffffffffffffffffffffffffffffffffffff0087860301835281357fffffffffffffffffffffffffffffffffffffffffffffffffffffffffffffffe18c3603018112612ca857600080fd5b8b01803567ffffffffffffffff811115612cc157600080fd5b8036038d1315612cd057600080fd5b612cdd8782888501612b7f565b965050509183019190830190600101612c47565b5050505060a08301949094525090151560c0909101529695505050505050565b7f4e487b7100000000000000000000000000000000000000000000000000000000600052603260045260246000fd5b60008219821115612d5357612d53612b39565b500190565b60007fffffffffffffffffffffffffffffffffffffffffffffffffffffffffffffffff8203612d8957612d89612b39565b5060010190565b606081526000612da4606083018688612b7f565b73ffffffffffffffffffffffffffffffffffffffff949094166020830152506040015292915050565b60008060408385031215612de057600080fd5b505080516020909101519092909150565b608081526000612e05608083018789612b7f565b602083019590955250604081019290925260609091015292915050565b60005b83811015612e3d578181015183820152602001612e25565b838111156120bd5750506000910152565b60008151808452612e66816020860160208601612e22565b601f01601f19169290920160200192915050565b606081526000612e8d6060830186612e4e565b60208301949094525060400152919050565b600060408284031215612eb157600080fd5b6040516040810181811067ffffffffffffffff82111715612ed457612ed461270c565b604052825181526020928301519281019290925250919050565b60008083357fffffffffffffffffffffffffffffffffffffffffffffffffffffffffffffffe1843603018112612f2357600080fd5b83018035915067ffffffffffffffff821115612f3e57600080fd5b6020019150368190038213156126b457600080fd5b60008085851115612f6357600080fd5b83861115612f7057600080fd5b5050820193919092039150565b803560208310156105fe577fffffffffffffffffffffffffffffffffffffffffffffffffffffffffffffffff602084900360031b1b1692915050565b600060208284031215612fcb57600080fd5b815167ffffffffffffffff811115612fe257600080fd5b8201601f81018413612ff357600080fd5b80516130016127b38261276c565b81815285602083850101111561301657600080fd5b611ae4826020830160208601612e22565b60008351613039818460208801612e22565b7f2e000000000000000000000000000000000000000000000000000000000000009083019081528351613073816001840160208801612e22565b01600101949350505050565b600073ffffffffffffffffffffffffffffffffffffffff80871683528086166020840152808516604084015250608060608301526130c06080830184612e4e565b9695505050505050565b600082516130dc818460208701612e22565b9190910192915050565b60208152600061248e6020830184612e4e56fe526567697374726172436f6e74726f6c6c65723a204661696c656420746f20736574205265636f7264a26469706673582212207ba0e10cfcfb9d209d691028e87a601a5aa253b1ae62851d6db863466c3005a664736f6c634300080d0033",
  "linkReferences": {},
  "deployedLinkReferences": {}
}